{
  "_format": "hh-sol-artifact-1",
  "contractName": "ParticipantRegistry",
  "sourceName": "contracts/ParticipantRegistry.sol",
  "abi": [
    {
      "anonymous": false,
      "inputs": [
        {
          "indexed": true,
          "internalType": "address",
          "name": "walletAddress",
          "type": "address"
        },
        {
          "indexed": false,
          "internalType": "enum ParticipantRegistry.ParticipantType",
          "name": "participantType",
          "type": "uint8"
        },
        {
          "indexed": false,
          "internalType": "string",
          "name": "name",
          "type": "string"
        }
      ],
      "name": "ParticipantRegistered",
      "type": "event"
    },
    {
      "inputs": [
        {
          "internalType": "address",
          "name": "_address",
          "type": "address"
        }
      ],
      "name": "getParticipantName",
      "outputs": [
        {
          "internalType": "string",
          "name": "",
          "type": "string"
        }
      ],
      "stateMutability": "view",
      "type": "function"
    },
    {
      "inputs": [
        {
          "internalType": "address",
          "name": "_address",
          "type": "address"
        }
      ],
      "name": "getParticipantType",
      "outputs": [
        {
          "internalType": "enum ParticipantRegistry.ParticipantType",
          "name": "",
          "type": "uint8"
        }
      ],
      "stateMutability": "view",
      "type": "function"
    },
    {
      "inputs": [
        {
          "internalType": "address",
          "name": "_address",
          "type": "address"
        }
      ],
      "name": "isParticipant",
      "outputs": [
        {
          "internalType": "bool",
          "name": "",
          "type": "bool"
        }
      ],
      "stateMutability": "view",
      "type": "function"
    },
    {
      "inputs": [
        {
          "internalType": "uint256",
          "name": "",
          "type": "uint256"
        }
      ],
      "name": "participantAddresses",
      "outputs": [
        {
          "internalType": "address",
          "name": "",
          "type": "address"
        }
      ],
      "stateMutability": "view",
      "type": "function"
    },
    {
      "inputs": [
        {
          "internalType": "address",
          "name": "",
          "type": "address"
        }
      ],
      "name": "participants",
      "outputs": [
        {
          "internalType": "address",
          "name": "walletAddress",
          "type": "address"
        },
        {
          "internalType": "enum ParticipantRegistry.ParticipantType",
          "name": "participantType",
          "type": "uint8"
        },
        {
          "internalType": "string",
          "name": "name",
          "type": "string"
        },
        {
          "internalType": "bool",
          "name": "exists",
          "type": "bool"
        }
      ],
      "stateMutability": "view",
      "type": "function"
    },
    {
      "inputs": [
        {
          "internalType": "enum ParticipantRegistry.ParticipantType",
          "name": "_participantType",
          "type": "uint8"
        },
        {
          "internalType": "string",
          "name": "_name",
          "type": "string"
        }
      ],
      "name": "registerParticipant",
      "outputs": [],
      "stateMutability": "nonpayable",
      "type": "function"
    }
  ],
  "bytecode": "0x6080604052348015600f57600080fd5b50610fde8061001f6000396000f3fe608060405234801561001057600080fd5b50600436106100625760003560e01c806309e69ede146100675780632607848e1461009a57806331384cff146100b657806354ffbddb146100e6578063929066f514610116578063fe71f3e414610146575b600080fd5b610081600480360381019061007c9190610766565b610176565b60405161009194939291906108c4565b60405180910390f35b6100b460048036038101906100af9190610a6a565b610268565b005b6100d060048036038101906100cb9190610766565b6104a2565b6040516100dd9190610ac6565b60405180910390f35b61010060048036038101906100fb9190610b1e565b6105bd565b60405161010d9190610b4b565b60405180910390f35b610130600480360381019061012b9190610766565b6105fc565b60405161013d9190610b66565b60405180910390f35b610160600480360381019061015b9190610766565b610654565b60405161016d9190610b81565b60405180910390f35b60006020528060005260406000206000915090508060000160009054906101000a900473ffffffffffffffffffffffffffffffffffffffff16908060000160149054906101000a900460ff16908060010180546101d290610bcb565b80601f01602080910402602001604051908101604052809291908181526020018280546101fe90610bcb565b801561024b5780601f106102205761010080835404028352916020019161024b565b820191906000526020600020905b81548152906001019060200180831161022e57829003601f168201915b5050505050908060020160009054906101000a900460ff16905084565b610271336105fc565b156102b1576040517f08c379a00000000000000000000000000000000000000000000000000000000081526004016102a890610c48565b60405180910390fd5b60405180608001604052803373ffffffffffffffffffffffffffffffffffffffff1681526020018360028111156102eb576102ea6107a2565b5b8152602001828152602001600115158152506000803373ffffffffffffffffffffffffffffffffffffffff1673ffffffffffffffffffffffffffffffffffffffff16815260200190815260200160002060008201518160000160006101000a81548173ffffffffffffffffffffffffffffffffffffffff021916908373ffffffffffffffffffffffffffffffffffffffff16021790555060208201518160000160146101000a81548160ff021916908360028111156103ad576103ac6107a2565b5b021790555060408201518160010190816103c79190610e14565b5060608201518160020160006101000a81548160ff0219169083151502179055509050506001339080600181540180825580915050600190039060005260206000200160009091909190916101000a81548173ffffffffffffffffffffffffffffffffffffffff021916908373ffffffffffffffffffffffffffffffffffffffff1602179055503373ffffffffffffffffffffffffffffffffffffffff167fe3564c470dc79d88d220de1a64bc335ec0a928450ce631293691bba84dd9a6118383604051610496929190610ee6565b60405180910390a25050565b60606104ad826105fc565b6104ec576040517f08c379a00000000000000000000000000000000000000000000000000000000081526004016104e390610f88565b60405180910390fd5b6000808373ffffffffffffffffffffffffffffffffffffffff1673ffffffffffffffffffffffffffffffffffffffff168152602001908152602001600020600101805461053890610bcb565b80601f016020809104026020016040519081016040528092919081815260200182805461056490610bcb565b80156105b15780601f10610586576101008083540402835291602001916105b1565b820191906000526020600020905b81548152906001019060200180831161059457829003601f168201915b50505050509050919050565b600181815481106105cd57600080fd5b906000526020600020016000915054906101000a900473ffffffffffffffffffffffffffffffffffffffff1681565b60008060008373ffffffffffffffffffffffffffffffffffffffff1673ffffffffffffffffffffffffffffffffffffffff16815260200190815260200160002060020160009054906101000a900460ff169050919050565b600061065f826105fc565b61069e576040517f08c379a000000000000000000000000000000000000000000000000000000000815260040161069590610f88565b60405180910390fd5b6000808373ffffffffffffffffffffffffffffffffffffffff1673ffffffffffffffffffffffffffffffffffffffff16815260200190815260200160002060000160149054906101000a900460ff169050919050565b6000604051905090565b600080fd5b600080fd5b600073ffffffffffffffffffffffffffffffffffffffff82169050919050565b600061073382610708565b9050919050565b61074381610728565b811461074e57600080fd5b50565b6000813590506107608161073a565b92915050565b60006020828403121561077c5761077b6106fe565b5b600061078a84828501610751565b91505092915050565b61079c81610728565b82525050565b7f4e487b7100000000000000000000000000000000000000000000000000000000600052602160045260246000fd5b600381106107e2576107e16107a2565b5b50565b60008190506107f3826107d1565b919050565b6000610803826107e5565b9050919050565b610813816107f8565b82525050565b600081519050919050565b600082825260208201905092915050565b60005b83811015610853578082015181840152602081019050610838565b60008484015250505050565b6000601f19601f8301169050919050565b600061087b82610819565b6108858185610824565b9350610895818560208601610835565b61089e8161085f565b840191505092915050565b60008115159050919050565b6108be816108a9565b82525050565b60006080820190506108d96000830187610793565b6108e6602083018661080a565b81810360408301526108f88185610870565b905061090760608301846108b5565b95945050505050565b6003811061091d57600080fd5b50565b60008135905061092f81610910565b92915050565b600080fd5b600080fd5b7f4e487b7100000000000000000000000000000000000000000000000000000000600052604160045260246000fd5b6109778261085f565b810181811067ffffffffffffffff821117156109965761099561093f565b5b80604052505050565b60006109a96106f4565b90506109b5828261096e565b919050565b600067ffffffffffffffff8211156109d5576109d461093f565b5b6109de8261085f565b9050602081019050919050565b82818337600083830152505050565b6000610a0d610a08846109ba565b61099f565b905082815260208101848484011115610a2957610a2861093a565b5b610a348482856109eb565b509392505050565b600082601f830112610a5157610a50610935565b5b8135610a618482602086016109fa565b91505092915050565b60008060408385031215610a8157610a806106fe565b5b6000610a8f85828601610920565b925050602083013567ffffffffffffffff811115610ab057610aaf610703565b5b610abc85828601610a3c565b9150509250929050565b60006020820190508181036000830152610ae08184610870565b905092915050565b6000819050919050565b610afb81610ae8565b8114610b0657600080fd5b50565b600081359050610b1881610af2565b92915050565b600060208284031215610b3457610b336106fe565b5b6000610b4284828501610b09565b91505092915050565b6000602082019050610b606000830184610793565b92915050565b6000602082019050610b7b60008301846108b5565b92915050565b6000602082019050610b96600083018461080a565b92915050565b7f4e487b7100000000000000000000000000000000000000000000000000000000600052602260045260246000fd5b60006002820490506001821680610be357607f821691505b602082108103610bf657610bf5610b9c565b5b50919050565b7f4164647265737320616c726561647920726567697374657265642e0000000000600082015250565b6000610c32601b83610824565b9150610c3d82610bfc565b602082019050919050565b60006020820190508181036000830152610c6181610c25565b9050919050565b60008190508160005260206000209050919050565b60006020601f8301049050919050565b600082821b905092915050565b600060088302610cca7fffffffffffffffffffffffffffffffffffffffffffffffffffffffffffffffff82610c8d565b610cd48683610c8d565b95508019841693508086168417925050509392505050565b6000819050919050565b6000610d11610d0c610d0784610ae8565b610cec565b610ae8565b9050919050565b6000819050919050565b610d2b83610cf6565b610d3f610d3782610d18565b848454610c9a565b825550505050565b600090565b610d54610d47565b610d5f818484610d22565b505050565b5b81811015610d8357610d78600082610d4c565b600181019050610d65565b5050565b601f821115610dc857610d9981610c68565b610da284610c7d565b81016020851015610db1578190505b610dc5610dbd85610c7d565b830182610d64565b50505b505050565b600082821c905092915050565b6000610deb60001984600802610dcd565b1980831691505092915050565b6000610e048383610dda565b9150826002028217905092915050565b610e1d82610819565b67ffffffffffffffff811115610e3657610e3561093f565b5b610e408254610bcb565b610e4b828285610d87565b600060209050601f831160018114610e7e5760008415610e6c578287015190505b610e768582610df8565b865550610ede565b601f198416610e8c86610c68565b60005b82811015610eb457848901518255600182019150602085019450602081019050610e8f565b86831015610ed15784890151610ecd601f891682610dda565b8355505b6001600288020188555050505b505050505050565b6000604082019050610efb600083018561080a565b8181036020830152610f0d8184610870565b90509392505050565b7f41646472657373206973206e6f7420612072656769737465726564207061727460008201527f69636970616e742e000000000000000000000000000000000000000000000000602082015250565b6000610f72602883610824565b9150610f7d82610f16565b604082019050919050565b60006020820190508181036000830152610fa181610f65565b905091905056fea2646970667358221220e509d0807858acdf19e85b6bdea29b1593097ca762d9609b37050c1ec7e2fc8764736f6c634300081c0033",
  "linkReferences": {},
  "deployedLinkReferences": {}
}