{"contracts/ParticipantRegistry.sol":{"ParticipantRegistry":{"abi":[{"anonymous":false,"inputs":[{"indexed":true,"internalType":"address","name":"walletAddress","type":"address"},{"indexed":false,"internalType":"enum ParticipantRegistry.ParticipantType","name":"participantType","type":"uint8"},{"indexed":false,"internalType":"string","name":"name","type":"string"}],"name":"ParticipantRegistered","type":"event"},{"inputs":[{"internalType":"address","name":"_address","type":"address"}],"name":"getParticipantName","outputs":[{"internalType":"string","name":"","type":"string"}],"stateMutability":"view","type":"function"},{"inputs":[{"internalType":"address","name":"_address","type":"address"}],"name":"getParticipantType","outputs":[{"internalType":"enum ParticipantRegistry.ParticipantType","name":"","type":"uint8"}],"stateMutability":"view","type":"function"},{"inputs":[{"internalType":"address","name":"_address","type":"address"}],"name":"isParticipant","outputs":[{"internalType":"bool","name":"","type":"bool"}],"stateMutability":"view","type":"function"},{"inputs":[{"internalType":"uint256","name":"","type":"uint256"}],"name":"participantAddresses","outputs":[{"internalType":"address","name":"","type":"address"}],"stateMutability":"view","type":"function"},{"inputs":[{"internalType":"address","name":"","type":"address"}],"name":"participants","outputs":[{"internalType":"address","name":"walletAddress","type":"address"},{"internalType":"enum ParticipantRegistry.ParticipantType","name":"participantType","type":"uint8"},{"internalType":"string","name":"name","type":"string"},{"internalType":"bool","name":"exists","type":"bool"}],"stateMutability":"view","type":"function"},{"inputs":[{"internalType":"enum ParticipantRegistry.ParticipantType","name":"_participantType","type":"uint8"},{"internalType":"string","name":"_name","type":"string"}],"name":"registerParticipant","outputs":[],"stateMutability":"nonpayable","type":"function"}],"evm":{"bytecode":{"linkReferences":{},"object":"6080604052348015600f57600080fd5b50610fde8061001f6000396000f3fe608060405234801561001057600080fd5b50600436106100625760003560e01c806309e69ede146100675780632607848e1461009a57806331384cff146100b657806354ffbddb146100e6578063929066f514610116578063fe71f3e414610146575b600080fd5b610081600480360381019061007c9190610766565b610176565b60405161009194939291906108c4565b60405180910390f35b6100b460048036038101906100af9190610a6a565b610268565b005b6100d060048036038101906100cb9190610766565b6104a2565b6040516100dd9190610ac6565b60405180910390f35b61010060048036038101906100fb9190610b1e565b6105bd565b60405161010d9190610b4b565b60405180910390f35b610130600480360381019061012b9190610766565b6105fc565b60405161013d9190610b66565b60405180910390f35b610160600480360381019061015b9190610766565b610654565b60405161016d9190610b81565b60405180910390f35b60006020528060005260406000206000915090508060000160009054906101000a900473ffffffffffffffffffffffffffffffffffffffff16908060000160149054906101000a900460ff16908060010180546101d290610bcb565b80601f01602080910402602001604051908101604052809291908181526020018280546101fe90610bcb565b801561024b5780601f106102205761010080835404028352916020019161024b565b820191906000526020600020905b81548152906001019060200180831161022e57829003601f168201915b5050505050908060020160009054906101000a900460ff16905084565b610271336105fc565b156102b1576040517f08c379a00000000000000000000000000000000000000000000000000000000081526004016102a890610c48565b60405180910390fd5b60405180608001604052803373ffffffffffffffffffffffffffffffffffffffff1681526020018360028111156102eb576102ea6107a2565b5b8152602001828152602001600115158152506000803373ffffffffffffffffffffffffffffffffffffffff1673ffffffffffffffffffffffffffffffffffffffff16815260200190815260200160002060008201518160000160006101000a81548173ffffffffffffffffffffffffffffffffffffffff021916908373ffffffffffffffffffffffffffffffffffffffff16021790555060208201518160000160146101000a81548160ff021916908360028111156103ad576103ac6107a2565b5b021790555060408201518160010190816103c79190610e14565b5060608201518160020160006101000a81548160ff0219169083151502179055509050506001339080600181540180825580915050600190039060005260206000200160009091909190916101000a81548173ffffffffffffffffffffffffffffffffffffffff021916908373ffffffffffffffffffffffffffffffffffffffff1602179055503373ffffffffffffffffffffffffffffffffffffffff167fe3564c470dc79d88d220de1a64bc335ec0a928450ce631293691bba84dd9a6118383604051610496929190610ee6565b60405180910390a25050565b60606104ad826105fc565b6104ec576040517f08c379a00000000000000000000000000000000000000000000000000000000081526004016104e390610f88565b60405180910390fd5b6000808373ffffffffffffffffffffffffffffffffffffffff1673ffffffffffffffffffffffffffffffffffffffff168152602001908152602001600020600101805461053890610bcb565b80601f016020809104026020016040519081016040528092919081815260200182805461056490610bcb565b80156105b15780601f10610586576101008083540402835291602001916105b1565b820191906000526020600020905b81548152906001019060200180831161059457829003601f168201915b50505050509050919050565b600181815481106105cd57600080fd5b906000526020600020016000915054906101000a900473ffffffffffffffffffffffffffffffffffffffff1681565b60008060008373ffffffffffffffffffffffffffffffffffffffff1673ffffffffffffffffffffffffffffffffffffffff16815260200190815260200160002060020160009054906101000a900460ff169050919050565b600061065f826105fc565b61069e576040517f08c379a000000000000000000000000000000000000000000000000000000000815260040161069590610f88565b60405180910390fd5b6000808373ffffffffffffffffffffffffffffffffffffffff1673ffffffffffffffffffffffffffffffffffffffff16815260200190815260200160002060000160149054906101000a900460ff169050919050565b6000604051905090565b600080fd5b600080fd5b600073ffffffffffffffffffffffffffffffffffffffff82169050919050565b600061073382610708565b9050919050565b61074381610728565b811461074e57600080fd5b50565b6000813590506107608161073a565b92915050565b60006020828403121561077c5761077b6106fe565b5b600061078a84828501610751565b91505092915050565b61079c81610728565b82525050565b7f4e487b7100000000000000000000000000000000000000000000000000000000600052602160045260246000fd5b600381106107e2576107e16107a2565b5b50565b60008190506107f3826107d1565b919050565b6000610803826107e5565b9050919050565b610813816107f8565b82525050565b600081519050919050565b600082825260208201905092915050565b60005b83811015610853578082015181840152602081019050610838565b60008484015250505050565b6000601f19601f8301169050919050565b600061087b82610819565b6108858185610824565b9350610895818560208601610835565b61089e8161085f565b840191505092915050565b60008115159050919050565b6108be816108a9565b82525050565b60006080820190506108d96000830187610793565b6108e6602083018661080a565b81810360408301526108f88185610870565b905061090760608301846108b5565b95945050505050565b6003811061091d57600080fd5b50565b60008135905061092f81610910565b92915050565b600080fd5b600080fd5b7f4e487b7100000000000000000000000000000000000000000000000000000000600052604160045260246000fd5b6109778261085f565b810181811067ffffffffffffffff821117156109965761099561093f565b5b80604052505050565b60006109a96106f4565b90506109b5828261096e565b919050565b600067ffffffffffffffff8211156109d5576109d461093f565b5b6109de8261085f565b9050602081019050919050565b82818337600083830152505050565b6000610a0d610a08846109ba565b61099f565b905082815260208101848484011115610a2957610a2861093a565b5b610a348482856109eb565b509392505050565b600082601f830112610a5157610a50610935565b5b8135610a618482602086016109fa565b91505092915050565b60008060408385031215610a8157610a806106fe565b5b6000610a8f85828601610920565b925050602083013567ffffffffffffffff811115610ab057610aaf610703565b5b610abc85828601610a3c565b9150509250929050565b60006020820190508181036000830152610ae08184610870565b905092915050565b6000819050919050565b610afb81610ae8565b8114610b0657600080fd5b50565b600081359050610b1881610af2565b92915050565b600060208284031215610b3457610b336106fe565b5b6000610b4284828501610b09565b91505092915050565b6000602082019050610b606000830184610793565b92915050565b6000602082019050610b7b60008301846108b5565b92915050565b6000602082019050610b96600083018461080a565b92915050565b7f4e487b7100000000000000000000000000000000000000000000000000000000600052602260045260246000fd5b60006002820490506001821680610be357607f821691505b602082108103610bf657610bf5610b9c565b5b50919050565b7f4164647265737320616c726561647920726567697374657265642e0000000000600082015250565b6000610c32601b83610824565b9150610c3d82610bfc565b602082019050919050565b60006020820190508181036000830152610c6181610c25565b9050919050565b60008190508160005260206000209050919050565b60006020601f8301049050919050565b600082821b905092915050565b600060088302610cca7fffffffffffffffffffffffffffffffffffffffffffffffffffffffffffffffff82610c8d565b610cd48683610c8d565b95508019841693508086168417925050509392505050565b6000819050919050565b6000610d11610d0c610d0784610ae8565b610cec565b610ae8565b9050919050565b6000819050919050565b610d2b83610cf6565b610d3f610d3782610d18565b848454610c9a565b825550505050565b600090565b610d54610d47565b610d5f818484610d22565b505050565b5b81811015610d8357610d78600082610d4c565b600181019050610d65565b5050565b601f821115610dc857610d9981610c68565b610da284610c7d565b81016020851015610db1578190505b610dc5610dbd85610c7d565b830182610d64565b50505b505050565b600082821c905092915050565b6000610deb60001984600802610dcd565b1980831691505092915050565b6000610e048383610dda565b9150826002028217905092915050565b610e1d82610819565b67ffffffffffffffff811115610e3657610e3561093f565b5b610e408254610bcb565b610e4b828285610d87565b600060209050601f831160018114610e7e5760008415610e6c578287015190505b610e768582610df8565b865550610ede565b601f198416610e8c86610c68565b60005b82811015610eb457848901518255600182019150602085019450602081019050610e8f565b86831015610ed15784890151610ecd601f891682610dda565b8355505b6001600288020188555050505b505050505050565b6000604082019050610efb600083018561080a565b8181036020830152610f0d8184610870565b90509392505050565b7f41646472657373206973206e6f7420612072656769737465726564207061727460008201527f69636970616e742e000000000000000000000000000000000000000000000000602082015250565b6000610f72602883610824565b9150610f7d82610f16565b604082019050919050565b60006020820190508181036000830152610fa181610f65565b905091905056fea2646970667358221220e509d0807858acdf19e85b6bdea29b1593097ca762d9609b37050c1ec7e2fc8764736f6c634300081c0033","opcodes":"PUSH1 0x80 PUSH1 0x40 MSTORE CALLVALUE DUP1 ISZERO PUSH1 0xF JUMPI PUSH1 0x0 DUP1 REVERT JUMPDEST POP PUSH2 0xFDE DUP1 PUSH2 0x1F PUSH1 0x0 CODECOPY PUSH1 0x0 RETURN INVALID PUSH1 0x80 PUSH1 0x40 MSTORE CALLVALUE DUP1 ISZERO PUSH2 0x10 JUMPI PUSH1 0x0 DUP1 REVERT JUMPDEST POP PUSH1 0x4 CALLDATASIZE LT PUSH2 0x62 JUMPI PUSH1 0x0 CALLDATALOAD PUSH1 0xE0 SHR DUP1 PUSH4 0x9E69EDE EQ PUSH2 0x67 JUMPI DUP1 PUSH4 0x2607848E EQ PUSH2 0x9A JUMPI DUP1 PUSH4 0x31384CFF EQ PUSH2 0xB6 JUMPI DUP1 PUSH4 0x54FFBDDB EQ PUSH2 0xE6 JUMPI DUP1 PUSH4 0x929066F5 EQ PUSH2 0x116 JUMPI DUP1 PUSH4 0xFE71F3E4 EQ PUSH2 0x146 JUMPI JUMPDEST PUSH1 0x0 DUP1 REVERT JUMPDEST PUSH2 0x81 PUSH1 0x4 DUP1 CALLDATASIZE SUB DUP2 ADD SWAP1 PUSH2 0x7C SWAP2 SWAP1 PUSH2 0x766 JUMP JUMPDEST PUSH2 0x176 JUMP JUMPDEST PUSH1 0x40 MLOAD PUSH2 0x91 SWAP5 SWAP4 SWAP3 SWAP2 SWAP1 PUSH2 0x8C4 JUMP JUMPDEST PUSH1 0x40 MLOAD DUP1 SWAP2 SUB SWAP1 RETURN JUMPDEST PUSH2 0xB4 PUSH1 0x4 DUP1 CALLDATASIZE SUB DUP2 ADD SWAP1 PUSH2 0xAF SWAP2 SWAP1 PUSH2 0xA6A JUMP JUMPDEST PUSH2 0x268 JUMP JUMPDEST STOP JUMPDEST PUSH2 0xD0 PUSH1 0x4 DUP1 CALLDATASIZE SUB DUP2 ADD SWAP1 PUSH2 0xCB SWAP2 SWAP1 PUSH2 0x766 JUMP JUMPDEST PUSH2 0x4A2 JUMP JUMPDEST PUSH1 0x40 MLOAD PUSH2 0xDD SWAP2 SWAP1 PUSH2 0xAC6 JUMP JUMPDEST PUSH1 0x40 MLOAD DUP1 SWAP2 SUB SWAP1 RETURN JUMPDEST PUSH2 0x100 PUSH1 0x4 DUP1 CALLDATASIZE SUB DUP2 ADD SWAP1 PUSH2 0xFB SWAP2 SWAP1 PUSH2 0xB1E JUMP JUMPDEST PUSH2 0x5BD JUMP JUMPDEST PUSH1 0x40 MLOAD PUSH2 0x10D SWAP2 SWAP1 PUSH2 0xB4B JUMP JUMPDEST PUSH1 0x40 MLOAD DUP1 SWAP2 SUB SWAP1 RETURN JUMPDEST PUSH2 0x130 PUSH1 0x4 DUP1 CALLDATASIZE SUB DUP2 ADD SWAP1 PUSH2 0x12B SWAP2 SWAP1 PUSH2 0x766 JUMP JUMPDEST PUSH2 0x5FC JUMP JUMPDEST PUSH1 0x40 MLOAD PUSH2 0x13D SWAP2 SWAP1 PUSH2 0xB66 JUMP JUMPDEST PUSH1 0x40 MLOAD DUP1 SWAP2 SUB SWAP1 RETURN JUMPDEST PUSH2 0x160 PUSH1 0x4 DUP1 CALLDATASIZE SUB DUP2 ADD SWAP1 PUSH2 0x15B SWAP2 SWAP1 PUSH2 0x766 JUMP JUMPDEST PUSH2 0x654 JUMP JUMPDEST PUSH1 0x40 MLOAD PUSH2 0x16D SWAP2 SWAP1 PUSH2 0xB81 JUMP JUMPDEST PUSH1 0x40 MLOAD DUP1 SWAP2 SUB SWAP1 RETURN JUMPDEST PUSH1 0x0 PUSH1 0x20 MSTORE DUP1 PUSH1 0x0 MSTORE PUSH1 0x40 PUSH1 0x0 KECCAK256 PUSH1 0x0 SWAP2 POP SWAP1 POP DUP1 PUSH1 0x0 ADD PUSH1 0x0 SWAP1 SLOAD SWAP1 PUSH2 0x100 EXP SWAP1 DIV PUSH20 0xFFFFFFFFFFFFFFFFFFFFFFFFFFFFFFFFFFFFFFFF AND SWAP1 DUP1 PUSH1 0x0 ADD PUSH1 0x14 SWAP1 SLOAD SWAP1 PUSH2 0x100 EXP SWAP1 DIV PUSH1 0xFF AND SWAP1 DUP1 PUSH1 0x1 ADD DUP1 SLOAD PUSH2 0x1D2 SWAP1 PUSH2 0xBCB JUMP JUMPDEST DUP1 PUSH1 0x1F ADD PUSH1 0x20 DUP1 SWAP2 DIV MUL PUSH1 0x20 ADD PUSH1 0x40 MLOAD SWAP1 DUP2 ADD PUSH1 0x40 MSTORE DUP1 SWAP3 SWAP2 SWAP1 DUP2 DUP2 MSTORE PUSH1 0x20 ADD DUP3 DUP1 SLOAD PUSH2 0x1FE SWAP1 PUSH2 0xBCB JUMP JUMPDEST DUP1 ISZERO PUSH2 0x24B JUMPI DUP1 PUSH1 0x1F LT PUSH2 0x220 JUMPI PUSH2 0x100 DUP1 DUP4 SLOAD DIV MUL DUP4 MSTORE SWAP2 PUSH1 0x20 ADD SWAP2 PUSH2 0x24B JUMP JUMPDEST DUP3 ADD SWAP2 SWAP1 PUSH1 0x0 MSTORE PUSH1 0x20 PUSH1 0x0 KECCAK256 SWAP1 JUMPDEST DUP2 SLOAD DUP2 MSTORE SWAP1 PUSH1 0x1 ADD SWAP1 PUSH1 0x20 ADD DUP1 DUP4 GT PUSH2 0x22E JUMPI DUP3 SWAP1 SUB PUSH1 0x1F AND DUP3 ADD SWAP2 JUMPDEST POP POP POP POP POP SWAP1 DUP1 PUSH1 0x2 ADD PUSH1 0x0 SWAP1 SLOAD SWAP1 PUSH2 0x100 EXP SWAP1 DIV PUSH1 0xFF AND SWAP1 POP DUP5 JUMP JUMPDEST PUSH2 0x271 CALLER PUSH2 0x5FC JUMP JUMPDEST ISZERO PUSH2 0x2B1 JUMPI PUSH1 0x40 MLOAD PUSH32 0x8C379A000000000000000000000000000000000000000000000000000000000 DUP2 MSTORE PUSH1 0x4 ADD PUSH2 0x2A8 SWAP1 PUSH2 0xC48 JUMP JUMPDEST PUSH1 0x40 MLOAD DUP1 SWAP2 SUB SWAP1 REVERT JUMPDEST PUSH1 0x40 MLOAD DUP1 PUSH1 0x80 ADD PUSH1 0x40 MSTORE DUP1 CALLER PUSH20 0xFFFFFFFFFFFFFFFFFFFFFFFFFFFFFFFFFFFFFFFF AND DUP2 MSTORE PUSH1 0x20 ADD DUP4 PUSH1 0x2 DUP2 GT ISZERO PUSH2 0x2EB JUMPI PUSH2 0x2EA PUSH2 0x7A2 JUMP JUMPDEST JUMPDEST DUP2 MSTORE PUSH1 0x20 ADD DUP3 DUP2 MSTORE PUSH1 0x20 ADD PUSH1 0x1 ISZERO ISZERO DUP2 MSTORE POP PUSH1 0x0 DUP1 CALLER PUSH20 0xFFFFFFFFFFFFFFFFFFFFFFFFFFFFFFFFFFFFFFFF AND PUSH20 0xFFFFFFFFFFFFFFFFFFFFFFFFFFFFFFFFFFFFFFFF AND DUP2 MSTORE PUSH1 0x20 ADD SWAP1 DUP2 MSTORE PUSH1 0x20 ADD PUSH1 0x0 KECCAK256 PUSH1 0x0 DUP3 ADD MLOAD DUP2 PUSH1 0x0 ADD PUSH1 0x0 PUSH2 0x100 EXP DUP2 SLOAD DUP2 PUSH20 0xFFFFFFFFFFFFFFFFFFFFFFFFFFFFFFFFFFFFFFFF MUL NOT AND SWAP1 DUP4 PUSH20 0xFFFFFFFFFFFFFFFFFFFFFFFFFFFFFFFFFFFFFFFF AND MUL OR SWAP1 SSTORE POP PUSH1 0x20 DUP3 ADD MLOAD DUP2 PUSH1 0x0 ADD PUSH1 0x14 PUSH2 0x100 EXP DUP2 SLOAD DUP2 PUSH1 0xFF MUL NOT AND SWAP1 DUP4 PUSH1 0x2 DUP2 GT ISZERO PUSH2 0x3AD JUMPI PUSH2 0x3AC PUSH2 0x7A2 JUMP JUMPDEST JUMPDEST MUL OR SWAP1 SSTORE POP PUSH1 0x40 DUP3 ADD MLOAD DUP2 PUSH1 0x1 ADD SWAP1 DUP2 PUSH2 0x3C7 SWAP2 SWAP1 PUSH2 0xE14 JUMP JUMPDEST POP PUSH1 0x60 DUP3 ADD MLOAD DUP2 PUSH1 0x2 ADD PUSH1 0x0 PUSH2 0x100 EXP DUP2 SLOAD DUP2 PUSH1 0xFF MUL NOT AND SWAP1 DUP4 ISZERO ISZERO MUL OR SWAP1 SSTORE POP SWAP1 POP POP PUSH1 0x1 CALLER SWAP1 DUP1 PUSH1 0x1 DUP2 SLOAD ADD DUP1 DUP3 SSTORE DUP1 SWAP2 POP POP PUSH1 0x1 SWAP1 SUB SWAP1 PUSH1 0x0 MSTORE PUSH1 0x20 PUSH1 0x0 KECCAK256 ADD PUSH1 0x0 SWAP1 SWAP2 SWAP1 SWAP2 SWAP1 SWAP2 PUSH2 0x100 EXP DUP2 SLOAD DUP2 PUSH20 0xFFFFFFFFFFFFFFFFFFFFFFFFFFFFFFFFFFFFFFFF MUL NOT AND SWAP1 DUP4 PUSH20 0xFFFFFFFFFFFFFFFFFFFFFFFFFFFFFFFFFFFFFFFF AND MUL OR SWAP1 SSTORE POP CALLER PUSH20 0xFFFFFFFFFFFFFFFFFFFFFFFFFFFFFFFFFFFFFFFF AND PUSH32 0xE3564C470DC79D88D220DE1A64BC335EC0A928450CE631293691BBA84DD9A611 DUP4 DUP4 PUSH1 0x40 MLOAD PUSH2 0x496 SWAP3 SWAP2 SWAP1 PUSH2 0xEE6 JUMP JUMPDEST PUSH1 0x40 MLOAD DUP1 SWAP2 SUB SWAP1 LOG2 POP POP JUMP JUMPDEST PUSH1 0x60 PUSH2 0x4AD DUP3 PUSH2 0x5FC JUMP JUMPDEST PUSH2 0x4EC JUMPI PUSH1 0x40 MLOAD PUSH32 0x8C379A000000000000000000000000000000000000000000000000000000000 DUP2 MSTORE PUSH1 0x4 ADD PUSH2 0x4E3 SWAP1 PUSH2 0xF88 JUMP JUMPDEST PUSH1 0x40 MLOAD DUP1 SWAP2 SUB SWAP1 REVERT JUMPDEST PUSH1 0x0 DUP1 DUP4 PUSH20 0xFFFFFFFFFFFFFFFFFFFFFFFFFFFFFFFFFFFFFFFF AND PUSH20 0xFFFFFFFFFFFFFFFFFFFFFFFFFFFFFFFFFFFFFFFF AND DUP2 MSTORE PUSH1 0x20 ADD SWAP1 DUP2 MSTORE PUSH1 0x20 ADD PUSH1 0x0 KECCAK256 PUSH1 0x1 ADD DUP1 SLOAD PUSH2 0x538 SWAP1 PUSH2 0xBCB JUMP JUMPDEST DUP1 PUSH1 0x1F ADD PUSH1 0x20 DUP1 SWAP2 DIV MUL PUSH1 0x20 ADD PUSH1 0x40 MLOAD SWAP1 DUP2 ADD PUSH1 0x40 MSTORE DUP1 SWAP3 SWAP2 SWAP1 DUP2 DUP2 MSTORE PUSH1 0x20 ADD DUP3 DUP1 SLOAD PUSH2 0x564 SWAP1 PUSH2 0xBCB JUMP JUMPDEST DUP1 ISZERO PUSH2 0x5B1 JUMPI DUP1 PUSH1 0x1F LT PUSH2 0x586 JUMPI PUSH2 0x100 DUP1 DUP4 SLOAD DIV MUL DUP4 MSTORE SWAP2 PUSH1 0x20 ADD SWAP2 PUSH2 0x5B1 JUMP JUMPDEST DUP3 ADD SWAP2 SWAP1 PUSH1 0x0 MSTORE PUSH1 0x20 PUSH1 0x0 KECCAK256 SWAP1 JUMPDEST DUP2 SLOAD DUP2 MSTORE SWAP1 PUSH1 0x1 ADD SWAP1 PUSH1 0x20 ADD DUP1 DUP4 GT PUSH2 0x594 JUMPI DUP3 SWAP1 SUB PUSH1 0x1F AND DUP3 ADD SWAP2 JUMPDEST POP POP POP POP POP SWAP1 POP SWAP2 SWAP1 POP JUMP JUMPDEST PUSH1 0x1 DUP2 DUP2 SLOAD DUP2 LT PUSH2 0x5CD JUMPI PUSH1 0x0 DUP1 REVERT JUMPDEST SWAP1 PUSH1 0x0 MSTORE PUSH1 0x20 PUSH1 0x0 KECCAK256 ADD PUSH1 0x0 SWAP2 POP SLOAD SWAP1 PUSH2 0x100 EXP SWAP1 DIV PUSH20 0xFFFFFFFFFFFFFFFFFFFFFFFFFFFFFFFFFFFFFFFF AND DUP2 JUMP JUMPDEST PUSH1 0x0 DUP1 PUSH1 0x0 DUP4 PUSH20 0xFFFFFFFFFFFFFFFFFFFFFFFFFFFFFFFFFFFFFFFF AND PUSH20 0xFFFFFFFFFFFFFFFFFFFFFFFFFFFFFFFFFFFFFFFF AND DUP2 MSTORE PUSH1 0x20 ADD SWAP1 DUP2 MSTORE PUSH1 0x20 ADD PUSH1 0x0 KECCAK256 PUSH1 0x2 ADD PUSH1 0x0 SWAP1 SLOAD SWAP1 PUSH2 0x100 EXP SWAP1 DIV PUSH1 0xFF AND SWAP1 POP SWAP2 SWAP1 POP JUMP JUMPDEST PUSH1 0x0 PUSH2 0x65F DUP3 PUSH2 0x5FC JUMP JUMPDEST PUSH2 0x69E JUMPI PUSH1 0x40 MLOAD PUSH32 0x8C379A000000000000000000000000000000000000000000000000000000000 DUP2 MSTORE PUSH1 0x4 ADD PUSH2 0x695 SWAP1 PUSH2 0xF88 JUMP JUMPDEST PUSH1 0x40 MLOAD DUP1 SWAP2 SUB SWAP1 REVERT JUMPDEST PUSH1 0x0 DUP1 DUP4 PUSH20 0xFFFFFFFFFFFFFFFFFFFFFFFFFFFFFFFFFFFFFFFF AND PUSH20 0xFFFFFFFFFFFFFFFFFFFFFFFFFFFFFFFFFFFFFFFF AND DUP2 MSTORE PUSH1 0x20 ADD SWAP1 DUP2 MSTORE PUSH1 0x20 ADD PUSH1 0x0 KECCAK256 PUSH1 0x0 ADD PUSH1 0x14 SWAP1 SLOAD SWAP1 PUSH2 0x100 EXP SWAP1 DIV PUSH1 0xFF AND SWAP1 POP SWAP2 SWAP1 POP JUMP JUMPDEST PUSH1 0x0 PUSH1 0x40 MLOAD SWAP1 POP SWAP1 JUMP JUMPDEST PUSH1 0x0 DUP1 REVERT JUMPDEST PUSH1 0x0 DUP1 REVERT JUMPDEST PUSH1 0x0 PUSH20 0xFFFFFFFFFFFFFFFFFFFFFFFFFFFFFFFFFFFFFFFF DUP3 AND SWAP1 POP SWAP2 SWAP1 POP JUMP JUMPDEST PUSH1 0x0 PUSH2 0x733 DUP3 PUSH2 0x708 JUMP JUMPDEST SWAP1 POP SWAP2 SWAP1 POP JUMP JUMPDEST PUSH2 0x743 DUP2 PUSH2 0x728 JUMP JUMPDEST DUP2 EQ PUSH2 0x74E JUMPI PUSH1 0x0 DUP1 REVERT JUMPDEST POP JUMP JUMPDEST PUSH1 0x0 DUP2 CALLDATALOAD SWAP1 POP PUSH2 0x760 DUP2 PUSH2 0x73A JUMP JUMPDEST SWAP3 SWAP2 POP POP JUMP JUMPDEST PUSH1 0x0 PUSH1 0x20 DUP3 DUP5 SUB SLT ISZERO PUSH2 0x77C JUMPI PUSH2 0x77B PUSH2 0x6FE JUMP JUMPDEST JUMPDEST PUSH1 0x0 PUSH2 0x78A DUP5 DUP3 DUP6 ADD PUSH2 0x751 JUMP JUMPDEST SWAP2 POP POP SWAP3 SWAP2 POP POP JUMP JUMPDEST PUSH2 0x79C DUP2 PUSH2 0x728 JUMP JUMPDEST DUP3 MSTORE POP POP JUMP JUMPDEST PUSH32 0x4E487B7100000000000000000000000000000000000000000000000000000000 PUSH1 0x0 MSTORE PUSH1 0x21 PUSH1 0x4 MSTORE PUSH1 0x24 PUSH1 0x0 REVERT JUMPDEST PUSH1 0x3 DUP2 LT PUSH2 0x7E2 JUMPI PUSH2 0x7E1 PUSH2 0x7A2 JUMP JUMPDEST JUMPDEST POP JUMP JUMPDEST PUSH1 0x0 DUP2 SWAP1 POP PUSH2 0x7F3 DUP3 PUSH2 0x7D1 JUMP JUMPDEST SWAP2 SWAP1 POP JUMP JUMPDEST PUSH1 0x0 PUSH2 0x803 DUP3 PUSH2 0x7E5 JUMP JUMPDEST SWAP1 POP SWAP2 SWAP1 POP JUMP JUMPDEST PUSH2 0x813 DUP2 PUSH2 0x7F8 JUMP JUMPDEST DUP3 MSTORE POP POP JUMP JUMPDEST PUSH1 0x0 DUP2 MLOAD SWAP1 POP SWAP2 SWAP1 POP JUMP JUMPDEST PUSH1 0x0 DUP3 DUP3 MSTORE PUSH1 0x20 DUP3 ADD SWAP1 POP SWAP3 SWAP2 POP POP JUMP JUMPDEST PUSH1 0x0 JUMPDEST DUP4 DUP2 LT ISZERO PUSH2 0x853 JUMPI DUP1 DUP3 ADD MLOAD DUP2 DUP5 ADD MSTORE PUSH1 0x20 DUP2 ADD SWAP1 POP PUSH2 0x838 JUMP JUMPDEST PUSH1 0x0 DUP5 DUP5 ADD MSTORE POP POP POP POP JUMP JUMPDEST PUSH1 0x0 PUSH1 0x1F NOT PUSH1 0x1F DUP4 ADD AND SWAP1 POP SWAP2 SWAP1 POP JUMP JUMPDEST PUSH1 0x0 PUSH2 0x87B DUP3 PUSH2 0x819 JUMP JUMPDEST PUSH2 0x885 DUP2 DUP6 PUSH2 0x824 JUMP JUMPDEST SWAP4 POP PUSH2 0x895 DUP2 DUP6 PUSH1 0x20 DUP7 ADD PUSH2 0x835 JUMP JUMPDEST PUSH2 0x89E DUP2 PUSH2 0x85F JUMP JUMPDEST DUP5 ADD SWAP2 POP POP SWAP3 SWAP2 POP POP JUMP JUMPDEST PUSH1 0x0 DUP2 ISZERO ISZERO SWAP1 POP SWAP2 SWAP1 POP JUMP JUMPDEST PUSH2 0x8BE DUP2 PUSH2 0x8A9 JUMP JUMPDEST DUP3 MSTORE POP POP JUMP JUMPDEST PUSH1 0x0 PUSH1 0x80 DUP3 ADD SWAP1 POP PUSH2 0x8D9 PUSH1 0x0 DUP4 ADD DUP8 PUSH2 0x793 JUMP JUMPDEST PUSH2 0x8E6 PUSH1 0x20 DUP4 ADD DUP7 PUSH2 0x80A JUMP JUMPDEST DUP2 DUP2 SUB PUSH1 0x40 DUP4 ADD MSTORE PUSH2 0x8F8 DUP2 DUP6 PUSH2 0x870 JUMP JUMPDEST SWAP1 POP PUSH2 0x907 PUSH1 0x60 DUP4 ADD DUP5 PUSH2 0x8B5 JUMP JUMPDEST SWAP6 SWAP5 POP POP POP POP POP JUMP JUMPDEST PUSH1 0x3 DUP2 LT PUSH2 0x91D JUMPI PUSH1 0x0 DUP1 REVERT JUMPDEST POP JUMP JUMPDEST PUSH1 0x0 DUP2 CALLDATALOAD SWAP1 POP PUSH2 0x92F DUP2 PUSH2 0x910 JUMP JUMPDEST SWAP3 SWAP2 POP POP JUMP JUMPDEST PUSH1 0x0 DUP1 REVERT JUMPDEST PUSH1 0x0 DUP1 REVERT JUMPDEST PUSH32 0x4E487B7100000000000000000000000000000000000000000000000000000000 PUSH1 0x0 MSTORE PUSH1 0x41 PUSH1 0x4 MSTORE PUSH1 0x24 PUSH1 0x0 REVERT JUMPDEST PUSH2 0x977 DUP3 PUSH2 0x85F JUMP JUMPDEST DUP2 ADD DUP2 DUP2 LT PUSH8 0xFFFFFFFFFFFFFFFF DUP3 GT OR ISZERO PUSH2 0x996 JUMPI PUSH2 0x995 PUSH2 0x93F JUMP JUMPDEST JUMPDEST DUP1 PUSH1 0x40 MSTORE POP POP POP JUMP JUMPDEST PUSH1 0x0 PUSH2 0x9A9 PUSH2 0x6F4 JUMP JUMPDEST SWAP1 POP PUSH2 0x9B5 DUP3 DUP3 PUSH2 0x96E JUMP JUMPDEST SWAP2 SWAP1 POP JUMP JUMPDEST PUSH1 0x0 PUSH8 0xFFFFFFFFFFFFFFFF DUP3 GT ISZERO PUSH2 0x9D5 JUMPI PUSH2 0x9D4 PUSH2 0x93F JUMP JUMPDEST JUMPDEST PUSH2 0x9DE DUP3 PUSH2 0x85F JUMP JUMPDEST SWAP1 POP PUSH1 0x20 DUP2 ADD SWAP1 POP SWAP2 SWAP1 POP JUMP JUMPDEST DUP3 DUP2 DUP4 CALLDATACOPY PUSH1 0x0 DUP4 DUP4 ADD MSTORE POP POP POP JUMP JUMPDEST PUSH1 0x0 PUSH2 0xA0D PUSH2 0xA08 DUP5 PUSH2 0x9BA JUMP JUMPDEST PUSH2 0x99F JUMP JUMPDEST SWAP1 POP DUP3 DUP2 MSTORE PUSH1 0x20 DUP2 ADD DUP5 DUP5 DUP5 ADD GT ISZERO PUSH2 0xA29 JUMPI PUSH2 0xA28 PUSH2 0x93A JUMP JUMPDEST JUMPDEST PUSH2 0xA34 DUP5 DUP3 DUP6 PUSH2 0x9EB JUMP JUMPDEST POP SWAP4 SWAP3 POP POP POP JUMP JUMPDEST PUSH1 0x0 DUP3 PUSH1 0x1F DUP4 ADD SLT PUSH2 0xA51 JUMPI PUSH2 0xA50 PUSH2 0x935 JUMP JUMPDEST JUMPDEST DUP2 CALLDATALOAD PUSH2 0xA61 DUP5 DUP3 PUSH1 0x20 DUP7 ADD PUSH2 0x9FA JUMP JUMPDEST SWAP2 POP POP SWAP3 SWAP2 POP POP JUMP JUMPDEST PUSH1 0x0 DUP1 PUSH1 0x40 DUP4 DUP6 SUB SLT ISZERO PUSH2 0xA81 JUMPI PUSH2 0xA80 PUSH2 0x6FE JUMP JUMPDEST JUMPDEST PUSH1 0x0 PUSH2 0xA8F DUP6 DUP3 DUP7 ADD PUSH2 0x920 JUMP JUMPDEST SWAP3 POP POP PUSH1 0x20 DUP4 ADD CALLDATALOAD PUSH8 0xFFFFFFFFFFFFFFFF DUP2 GT ISZERO PUSH2 0xAB0 JUMPI PUSH2 0xAAF PUSH2 0x703 JUMP JUMPDEST JUMPDEST PUSH2 0xABC DUP6 DUP3 DUP7 ADD PUSH2 0xA3C JUMP JUMPDEST SWAP2 POP POP SWAP3 POP SWAP3 SWAP1 POP JUMP JUMPDEST PUSH1 0x0 PUSH1 0x20 DUP3 ADD SWAP1 POP DUP2 DUP2 SUB PUSH1 0x0 DUP4 ADD MSTORE PUSH2 0xAE0 DUP2 DUP5 PUSH2 0x870 JUMP JUMPDEST SWAP1 POP SWAP3 SWAP2 POP POP JUMP JUMPDEST PUSH1 0x0 DUP2 SWAP1 POP SWAP2 SWAP1 POP JUMP JUMPDEST PUSH2 0xAFB DUP2 PUSH2 0xAE8 JUMP JUMPDEST DUP2 EQ PUSH2 0xB06 JUMPI PUSH1 0x0 DUP1 REVERT JUMPDEST POP JUMP JUMPDEST PUSH1 0x0 DUP2 CALLDATALOAD SWAP1 POP PUSH2 0xB18 DUP2 PUSH2 0xAF2 JUMP JUMPDEST SWAP3 SWAP2 POP POP JUMP JUMPDEST PUSH1 0x0 PUSH1 0x20 DUP3 DUP5 SUB SLT ISZERO PUSH2 0xB34 JUMPI PUSH2 0xB33 PUSH2 0x6FE JUMP JUMPDEST JUMPDEST PUSH1 0x0 PUSH2 0xB42 DUP5 DUP3 DUP6 ADD PUSH2 0xB09 JUMP JUMPDEST SWAP2 POP POP SWAP3 SWAP2 POP POP JUMP JUMPDEST PUSH1 0x0 PUSH1 0x20 DUP3 ADD SWAP1 POP PUSH2 0xB60 PUSH1 0x0 DUP4 ADD DUP5 PUSH2 0x793 JUMP JUMPDEST SWAP3 SWAP2 POP POP JUMP JUMPDEST PUSH1 0x0 PUSH1 0x20 DUP3 ADD SWAP1 POP PUSH2 0xB7B PUSH1 0x0 DUP4 ADD DUP5 PUSH2 0x8B5 JUMP JUMPDEST SWAP3 SWAP2 POP POP JUMP JUMPDEST PUSH1 0x0 PUSH1 0x20 DUP3 ADD SWAP1 POP PUSH2 0xB96 PUSH1 0x0 DUP4 ADD DUP5 PUSH2 0x80A JUMP JUMPDEST SWAP3 SWAP2 POP POP JUMP JUMPDEST PUSH32 0x4E487B7100000000000000000000000000000000000000000000000000000000 PUSH1 0x0 MSTORE PUSH1 0x22 PUSH1 0x4 MSTORE PUSH1 0x24 PUSH1 0x0 REVERT JUMPDEST PUSH1 0x0 PUSH1 0x2 DUP3 DIV SWAP1 POP PUSH1 0x1 DUP3 AND DUP1 PUSH2 0xBE3 JUMPI PUSH1 0x7F DUP3 AND SWAP2 POP JUMPDEST PUSH1 0x20 DUP3 LT DUP2 SUB PUSH2 0xBF6 JUMPI PUSH2 0xBF5 PUSH2 0xB9C JUMP JUMPDEST JUMPDEST POP SWAP2 SWAP1 POP JUMP JUMPDEST PUSH32 0x4164647265737320616C726561647920726567697374657265642E0000000000 PUSH1 0x0 DUP3 ADD MSTORE POP JUMP JUMPDEST PUSH1 0x0 PUSH2 0xC32 PUSH1 0x1B DUP4 PUSH2 0x824 JUMP JUMPDEST SWAP2 POP PUSH2 0xC3D DUP3 PUSH2 0xBFC JUMP JUMPDEST PUSH1 0x20 DUP3 ADD SWAP1 POP SWAP2 SWAP1 POP JUMP JUMPDEST PUSH1 0x0 PUSH1 0x20 DUP3 ADD SWAP1 POP DUP2 DUP2 SUB PUSH1 0x0 DUP4 ADD MSTORE PUSH2 0xC61 DUP2 PUSH2 0xC25 JUMP JUMPDEST SWAP1 POP SWAP2 SWAP1 POP JUMP JUMPDEST PUSH1 0x0 DUP2 SWAP1 POP DUP2 PUSH1 0x0 MSTORE PUSH1 0x20 PUSH1 0x0 KECCAK256 SWAP1 POP SWAP2 SWAP1 POP JUMP JUMPDEST PUSH1 0x0 PUSH1 0x20 PUSH1 0x1F DUP4 ADD DIV SWAP1 POP SWAP2 SWAP1 POP JUMP JUMPDEST PUSH1 0x0 DUP3 DUP3 SHL SWAP1 POP SWAP3 SWAP2 POP POP JUMP JUMPDEST PUSH1 0x0 PUSH1 0x8 DUP4 MUL PUSH2 0xCCA PUSH32 0xFFFFFFFFFFFFFFFFFFFFFFFFFFFFFFFFFFFFFFFFFFFFFFFFFFFFFFFFFFFFFFFF DUP3 PUSH2 0xC8D JUMP JUMPDEST PUSH2 0xCD4 DUP7 DUP4 PUSH2 0xC8D JUMP JUMPDEST SWAP6 POP DUP1 NOT DUP5 AND SWAP4 POP DUP1 DUP7 AND DUP5 OR SWAP3 POP POP POP SWAP4 SWAP3 POP POP POP JUMP JUMPDEST PUSH1 0x0 DUP2 SWAP1 POP SWAP2 SWAP1 POP JUMP JUMPDEST PUSH1 0x0 PUSH2 0xD11 PUSH2 0xD0C PUSH2 0xD07 DUP5 PUSH2 0xAE8 JUMP JUMPDEST PUSH2 0xCEC JUMP JUMPDEST PUSH2 0xAE8 JUMP JUMPDEST SWAP1 POP SWAP2 SWAP1 POP JUMP JUMPDEST PUSH1 0x0 DUP2 SWAP1 POP SWAP2 SWAP1 POP JUMP JUMPDEST PUSH2 0xD2B DUP4 PUSH2 0xCF6 JUMP JUMPDEST PUSH2 0xD3F PUSH2 0xD37 DUP3 PUSH2 0xD18 JUMP JUMPDEST DUP5 DUP5 SLOAD PUSH2 0xC9A JUMP JUMPDEST DUP3 SSTORE POP POP POP POP JUMP JUMPDEST PUSH1 0x0 SWAP1 JUMP JUMPDEST PUSH2 0xD54 PUSH2 0xD47 JUMP JUMPDEST PUSH2 0xD5F DUP2 DUP5 DUP5 PUSH2 0xD22 JUMP JUMPDEST POP POP POP JUMP JUMPDEST JUMPDEST DUP2 DUP2 LT ISZERO PUSH2 0xD83 JUMPI PUSH2 0xD78 PUSH1 0x0 DUP3 PUSH2 0xD4C JUMP JUMPDEST PUSH1 0x1 DUP2 ADD SWAP1 POP PUSH2 0xD65 JUMP JUMPDEST POP POP JUMP JUMPDEST PUSH1 0x1F DUP3 GT ISZERO PUSH2 0xDC8 JUMPI PUSH2 0xD99 DUP2 PUSH2 0xC68 JUMP JUMPDEST PUSH2 0xDA2 DUP5 PUSH2 0xC7D JUMP JUMPDEST DUP2 ADD PUSH1 0x20 DUP6 LT ISZERO PUSH2 0xDB1 JUMPI DUP2 SWAP1 POP JUMPDEST PUSH2 0xDC5 PUSH2 0xDBD DUP6 PUSH2 0xC7D JUMP JUMPDEST DUP4 ADD DUP3 PUSH2 0xD64 JUMP JUMPDEST POP POP JUMPDEST POP POP POP JUMP JUMPDEST PUSH1 0x0 DUP3 DUP3 SHR SWAP1 POP SWAP3 SWAP2 POP POP JUMP JUMPDEST PUSH1 0x0 PUSH2 0xDEB PUSH1 0x0 NOT DUP5 PUSH1 0x8 MUL PUSH2 0xDCD JUMP JUMPDEST NOT DUP1 DUP4 AND SWAP2 POP POP SWAP3 SWAP2 POP POP JUMP JUMPDEST PUSH1 0x0 PUSH2 0xE04 DUP4 DUP4 PUSH2 0xDDA JUMP JUMPDEST SWAP2 POP DUP3 PUSH1 0x2 MUL DUP3 OR SWAP1 POP SWAP3 SWAP2 POP POP JUMP JUMPDEST PUSH2 0xE1D DUP3 PUSH2 0x819 JUMP JUMPDEST PUSH8 0xFFFFFFFFFFFFFFFF DUP2 GT ISZERO PUSH2 0xE36 JUMPI PUSH2 0xE35 PUSH2 0x93F JUMP JUMPDEST JUMPDEST PUSH2 0xE40 DUP3 SLOAD PUSH2 0xBCB JUMP JUMPDEST PUSH2 0xE4B DUP3 DUP3 DUP6 PUSH2 0xD87 JUMP JUMPDEST PUSH1 0x0 PUSH1 0x20 SWAP1 POP PUSH1 0x1F DUP4 GT PUSH1 0x1 DUP2 EQ PUSH2 0xE7E JUMPI PUSH1 0x0 DUP5 ISZERO PUSH2 0xE6C JUMPI DUP3 DUP8 ADD MLOAD SWAP1 POP JUMPDEST PUSH2 0xE76 DUP6 DUP3 PUSH2 0xDF8 JUMP JUMPDEST DUP7 SSTORE POP PUSH2 0xEDE JUMP JUMPDEST PUSH1 0x1F NOT DUP5 AND PUSH2 0xE8C DUP7 PUSH2 0xC68 JUMP JUMPDEST PUSH1 0x0 JUMPDEST DUP3 DUP2 LT ISZERO PUSH2 0xEB4 JUMPI DUP5 DUP10 ADD MLOAD DUP3 SSTORE PUSH1 0x1 DUP3 ADD SWAP2 POP PUSH1 0x20 DUP6 ADD SWAP5 POP PUSH1 0x20 DUP2 ADD SWAP1 POP PUSH2 0xE8F JUMP JUMPDEST DUP7 DUP4 LT ISZERO PUSH2 0xED1 JUMPI DUP5 DUP10 ADD MLOAD PUSH2 0xECD PUSH1 0x1F DUP10 AND DUP3 PUSH2 0xDDA JUMP JUMPDEST DUP4 SSTORE POP JUMPDEST PUSH1 0x1 PUSH1 0x2 DUP9 MUL ADD DUP9 SSTORE POP POP POP JUMPDEST POP POP POP POP POP POP JUMP JUMPDEST PUSH1 0x0 PUSH1 0x40 DUP3 ADD SWAP1 POP PUSH2 0xEFB PUSH1 0x0 DUP4 ADD DUP6 PUSH2 0x80A JUMP JUMPDEST DUP2 DUP2 SUB PUSH1 0x20 DUP4 ADD MSTORE PUSH2 0xF0D DUP2 DUP5 PUSH2 0x870 JUMP JUMPDEST SWAP1 POP SWAP4 SWAP3 POP POP POP JUMP JUMPDEST PUSH32 0x41646472657373206973206E6F74206120726567697374657265642070617274 PUSH1 0x0 DUP3 ADD MSTORE PUSH32 0x69636970616E742E000000000000000000000000000000000000000000000000 PUSH1 0x20 DUP3 ADD MSTORE POP JUMP JUMPDEST PUSH1 0x0 PUSH2 0xF72 PUSH1 0x28 DUP4 PUSH2 0x824 JUMP JUMPDEST SWAP2 POP PUSH2 0xF7D DUP3 PUSH2 0xF16 JUMP JUMPDEST PUSH1 0x40 DUP3 ADD SWAP1 POP SWAP2 SWAP1 POP JUMP JUMPDEST PUSH1 0x0 PUSH1 0x20 DUP3 ADD SWAP1 POP DUP2 DUP2 SUB PUSH1 0x0 DUP4 ADD MSTORE PUSH2 0xFA1 DUP2 PUSH2 0xF65 JUMP JUMPDEST SWAP1 POP SWAP2 SWAP1 POP JUMP INVALID LOG2 PUSH5 0x6970667358 0x22 SLT KECCAK256 0xE5 MULMOD 0xD0 DUP1 PUSH25 0x58ACDF19E85B6BDEA29B1593097CA762D9609B37050C1EC7E2 0xFC DUP8 PUSH5 0x736F6C6343 STOP ADDMOD SHR STOP CALLER "},"methodIdentifiers":{"getParticipantName(address)":"31384cff","getParticipantType(address)":"fe71f3e4","isParticipant(address)":"929066f5","participantAddresses(uint256)":"54ffbddb","participants(address)":"09e69ede","registerParticipant(uint8,string)":"2607848e"}}}}}