{
  "_format": "hh-sol-artifact-1",
  "contractName": "Verification",
  "sourceName": "contracts/Verification.sol",
  "abi": [
    {
      "inputs": [
        {
          "internalType": "address",
          "name": "_drugTrackingAddress",
          "type": "address"
        }
      ],
      "stateMutability": "nonpayable",
      "type": "constructor"
    },
    {
      "inputs": [],
      "name": "drugTracking",
      "outputs": [
        {
          "internalType": "contract DrugTracking",
          "name": "",
          "type": "address"
        }
      ],
      "stateMutability": "view",
      "type": "function"
    },
    {
      "inputs": [
        {
          "internalType": "uint256",
          "name": "_drugId",
          "type": "uint256"
        }
      ],
      "name": "verifyDrug",
      "outputs": [
        {
          "internalType": "bool",
          "name": "",
          "type": "bool"
        }
      ],
      "stateMutability": "view",
      "type": "function"
    },
    {
      "inputs": [
        {
          "internalType": "uint256",
          "name": "",
          "type": "uint256"
        },
        {
          "internalType": "bytes",
          "name": "",
          "type": "bytes"
        }
      ],
      "name": "verifyDrugSignature",
      "outputs": [
        {
          "internalType": "bool",
          "name": "",
          "type": "bool"
        }
      ],
      "stateMutability": "pure",
      "type": "function"
    }
  ],
  "bytecode": "0x608060405234801561001057600080fd5b50604051610871380380610871833981810160405281019061003291906100db565b806000806101000a81548173ffffffffffffffffffffffffffffffffffffffff021916908373ffffffffffffffffffffffffffffffffffffffff16021790555050610108565b600080fd5b600073ffffffffffffffffffffffffffffffffffffffff82169050919050565b60006100a88261007d565b9050919050565b6100b88161009d565b81146100c357600080fd5b50565b6000815190506100d5816100af565b92915050565b6000602082840312156100f1576100f0610078565b5b60006100ff848285016100c6565b91505092915050565b61075a806101176000396000f3fe608060405234801561001057600080fd5b50600436106100415760003560e01c80631c21646f14610046578063412b46e414610064578063cba522d414610094575b600080fd5b61004e6100c4565b60405161005b919061026c565b60405180910390f35b61007e600480360381019061007991906102d1565b6100e8565b60405161008b9190610319565b60405180910390f35b6100ae60048036038101906100a9919061047a565b6101e1565b6040516100bb9190610319565b60405180910390f35b60008054906101000a900473ffffffffffffffffffffffffffffffffffffffff1681565b60008060008060009054906101000a900473ffffffffffffffffffffffffffffffffffffffff1673ffffffffffffffffffffffffffffffffffffffff16630b210a72856040518263ffffffff1660e01b815260040161014791906104e5565b600060405180830381865afa158015610164573d6000803e3d6000fd5b505050506040513d6000823e3d601f19601f8201168201806040525081019061018d919061064a565b965050955050505050600073ffffffffffffffffffffffffffffffffffffffff168273ffffffffffffffffffffffffffffffffffffffff16036101d5576000925050506101dc565b8015925050505b919050565b60006001905092915050565b600073ffffffffffffffffffffffffffffffffffffffff82169050919050565b6000819050919050565b600061023261022d610228846101ed565b61020d565b6101ed565b9050919050565b600061024482610217565b9050919050565b600061025682610239565b9050919050565b6102668161024b565b82525050565b6000602082019050610281600083018461025d565b92915050565b6000604051905090565b600080fd5b600080fd5b6000819050919050565b6102ae8161029b565b81146102b957600080fd5b50565b6000813590506102cb816102a5565b92915050565b6000602082840312156102e7576102e6610291565b5b60006102f5848285016102bc565b91505092915050565b60008115159050919050565b610313816102fe565b82525050565b600060208201905061032e600083018461030a565b92915050565b600080fd5b600080fd5b6000601f19601f8301169050919050565b7f4e487b7100000000000000000000000000000000000000000000000000000000600052604160045260246000fd5b6103878261033e565b810181811067ffffffffffffffff821117156103a6576103a561034f565b5b80604052505050565b60006103b9610287565b90506103c5828261037e565b919050565b600067ffffffffffffffff8211156103e5576103e461034f565b5b6103ee8261033e565b9050602081019050919050565b82818337600083830152505050565b600061041d610418846103ca565b6103af565b90508281526020810184848401111561043957610438610339565b5b6104448482856103fb565b509392505050565b600082601f83011261046157610460610334565b5b813561047184826020860161040a565b91505092915050565b6000806040838503121561049157610490610291565b5b600061049f858286016102bc565b925050602083013567ffffffffffffffff8111156104c0576104bf610296565b5b6104cc8582860161044c565b9150509250929050565b6104df8161029b565b82525050565b60006020820190506104fa60008301846104d6565b92915050565b60008151905061050f816102a5565b92915050565b600067ffffffffffffffff8211156105305761052f61034f565b5b6105398261033e565b9050602081019050919050565b60005b83811015610564578082015181840152602081019050610549565b60008484015250505050565b600061058361057e84610515565b6103af565b90508281526020810184848401111561059f5761059e610339565b5b6105aa848285610546565b509392505050565b600082601f8301126105c7576105c6610334565b5b81516105d7848260208601610570565b91505092915050565b60006105eb826101ed565b9050919050565b6105fb816105e0565b811461060657600080fd5b50565b600081519050610618816105f2565b92915050565b610627816102fe565b811461063257600080fd5b50565b6000815190506106448161061e565b92915050565b600080600080600080600060e0888a03121561066957610668610291565b5b60006106778a828b01610500565b975050602088015167ffffffffffffffff81111561069857610697610296565b5b6106a48a828b016105b2565b965050604088015167ffffffffffffffff8111156106c5576106c4610296565b5b6106d18a828b016105b2565b95505060606106e28a828b01610609565b94505060806106f38a828b01610609565b93505060a06107048a828b01610500565b92505060c06107158a828b01610635565b9150509295989194975092955056fea264697066735822122080fbbbaf05308704b17fdaf720e30635eadf939308c6a5e9e809a52a3a021d7864736f6c634300081c0033",
  "linkReferences": {},
  "deployedLinkReferences": {}
}