{
  "_format": "hh-sol-artifact-1",
  "contractName": "Verification",
  "sourceName": "contracts/Verification.sol",
  "abi": [
    {
      "inputs": [
        {
          "internalType": "address",
          "name": "_drugTrackingAddress",
          "type": "address"
        }
      ],
      "stateMutability": "nonpayable",
      "type": "constructor"
    },
    {
      "inputs": [],
      "name": "drugTracking",
      "outputs": [
        {
          "internalType": "contract DrugTracking",
          "name": "",
          "type": "address"
        }
      ],
      "stateMutability": "view",
      "type": "function"
    },
    {
      "inputs": [
        {
          "internalType": "uint256",
          "name": "_drugId",
          "type": "uint256"
        }
      ],
      "name": "verifyDrug",
      "outputs": [
        {
          "internalType": "bool",
          "name": "",
          "type": "bool"
        }
      ],
      "stateMutability": "view",
      "type": "function"
    },
    {
      "inputs": [
        {
          "internalType": "uint256",
          "name": "_drugId",
          "type": "uint256"
        },
        {
          "internalType": "bytes",
          "name": "_signature",
          "type": "bytes"
        }
      ],
      "name": "verifyDrugSignature",
      "outputs": [
        {
          "internalType": "bool",
          "name": "",
          "type": "bool"
        }
      ],
      "stateMutability": "view",
      "type": "function"
    }
  ],
  "bytecode": "0x608060405234801561001057600080fd5b50604051610974380380610974833981810160405281019061003291906100db565b806000806101000a81548173ffffffffffffffffffffffffffffffffffffffff021916908373ffffffffffffffffffffffffffffffffffffffff16021790555050610108565b600080fd5b600073ffffffffffffffffffffffffffffffffffffffff82169050919050565b60006100a88261007d565b9050919050565b6100b88161009d565b81146100c357600080fd5b50565b6000815190506100d5816100af565b92915050565b6000602082840312156100f1576100f0610078565b5b60006100ff848285016100c6565b91505092915050565b61085d806101176000396000f3fe608060405234801561001057600080fd5b50600436106100415760003560e01c80631c21646f14610046578063412b46e414610064578063cba522d414610094575b600080fd5b61004e6100c4565b60405161005b91906102d6565b60405180910390f35b61007e6004803603810190610079919061033b565b6100e8565b60405161008b9190610383565b60405180910390f35b6100ae60048036038101906100a991906104e4565b61024b565b6040516100bb9190610383565b60405180910390f35b60008054906101000a900473ffffffffffffffffffffffffffffffffffffffff1681565b60008060008060008060008060008054906101000a900473ffffffffffffffffffffffffffffffffffffffff1673ffffffffffffffffffffffffffffffffffffffff16630b210a728a6040518263ffffffff1660e01b815260040161014d919061054f565b600060405180830381865afa15801561016a573d6000803e3d6000fd5b505050506040513d6000823e3d601f19601f8201168201806040525081019061019391906106b4565b9650965096509650965096509650600073ffffffffffffffffffffffffffffffffffffffff168473ffffffffffffffffffffffffffffffffffffffff16148061022557506040516020016101e6906107bf565b604051602081830303815290604052805190602001208660405160200161020d9190610810565b60405160208183030381529060405280519060200120145b1561023a576000975050505050505050610246565b80159750505050505050505b919050565b60006001905092915050565b600073ffffffffffffffffffffffffffffffffffffffff82169050919050565b6000819050919050565b600061029c61029761029284610257565b610277565b610257565b9050919050565b60006102ae82610281565b9050919050565b60006102c0826102a3565b9050919050565b6102d0816102b5565b82525050565b60006020820190506102eb60008301846102c7565b92915050565b6000604051905090565b600080fd5b600080fd5b6000819050919050565b61031881610305565b811461032357600080fd5b50565b6000813590506103358161030f565b92915050565b600060208284031215610351576103506102fb565b5b600061035f84828501610326565b91505092915050565b60008115159050919050565b61037d81610368565b82525050565b60006020820190506103986000830184610374565b92915050565b600080fd5b600080fd5b6000601f19601f8301169050919050565b7f4e487b7100000000000000000000000000000000000000000000000000000000600052604160045260246000fd5b6103f1826103a8565b810181811067ffffffffffffffff821117156104105761040f6103b9565b5b80604052505050565b60006104236102f1565b905061042f82826103e8565b919050565b600067ffffffffffffffff82111561044f5761044e6103b9565b5b610458826103a8565b9050602081019050919050565b82818337600083830152505050565b600061048761048284610434565b610419565b9050828152602081018484840111156104a3576104a26103a3565b5b6104ae848285610465565b509392505050565b600082601f8301126104cb576104ca61039e565b5b81356104db848260208601610474565b91505092915050565b600080604083850312156104fb576104fa6102fb565b5b600061050985828601610326565b925050602083013567ffffffffffffffff81111561052a57610529610300565b5b610536858286016104b6565b9150509250929050565b61054981610305565b82525050565b60006020820190506105646000830184610540565b92915050565b6000815190506105798161030f565b92915050565b600067ffffffffffffffff82111561059a576105996103b9565b5b6105a3826103a8565b9050602081019050919050565b60005b838110156105ce5780820151818401526020810190506105b3565b60008484015250505050565b60006105ed6105e88461057f565b610419565b905082815260208101848484011115610609576106086103a3565b5b6106148482856105b0565b509392505050565b600082601f8301126106315761063061039e565b5b81516106418482602086016105da565b91505092915050565b600061065582610257565b9050919050565b6106658161064a565b811461067057600080fd5b50565b6000815190506106828161065c565b92915050565b61069181610368565b811461069c57600080fd5b50565b6000815190506106ae81610688565b92915050565b600080600080600080600060e0888a0312156106d3576106d26102fb565b5b60006106e18a828b0161056a565b975050602088015167ffffffffffffffff81111561070257610701610300565b5b61070e8a828b0161061c565b965050604088015167ffffffffffffffff81111561072f5761072e610300565b5b61073b8a828b0161061c565b955050606061074c8a828b01610673565b945050608061075d8a828b01610673565b93505060a061076e8a828b0161056a565b92505060c061077f8a828b0161069f565b91505092959891949750929550565b600081905092915050565b50565b60006107a960008361078e565b91506107b482610799565b600082019050919050565b60006107ca8261079c565b9150819050919050565b600081519050919050565b60006107ea826107d4565b6107f4818561078e565b93506108048185602086016105b0565b80840191505092915050565b600061081c82846107df565b91508190509291505056fea2646970667358221220b03468c6e66e7100c224afa0d68c47c249216a7a6d6c76e37d8e438f1d59409f64736f6c634300081c0033",
  "linkReferences": {},
  "deployedLinkReferences": {}
}