{
  "_format": "hh-sol-artifact-1",
  "contractName": "DrugTracking",
  "sourceName": "contracts/DrugTracking.sol",
  "abi": [
    {
      "inputs": [
        {
          "internalType": "address",
          "name": "_participantRegistryAddress",
          "type": "address"
        }
      ],
      "stateMutability": "nonpayable",
      "type": "constructor"
    },
    {
      "anonymous": false,
      "inputs": [
        {
          "indexed": false,
          "internalType": "uint256",
          "name": "drugId",
          "type": "uint256"
        },
        {
          "indexed": false,
          "internalType": "address",
          "name": "currentHolder",
          "type": "address"
        }
      ],
      "name": "DebugCurrentHolder",
      "type": "event"
    },
    {
      "anonymous": false,
      "inputs": [
        {
          "indexed": false,
          "internalType": "uint256",
          "name": "drugId",
          "type": "uint256"
        },
        {
          "indexed": false,
          "internalType": "string",
          "name": "name",
          "type": "string"
        },
        {
          "indexed": false,
          "internalType": "string",
          "name": "lotNumber",
          "type": "string"
        },
        {
          "indexed": false,
          "internalType": "address",
          "name": "manufacturer",
          "type": "address"
        }
      ],
      "name": "DrugAdded",
      "type": "event"
    },
    {
      "anonymous": false,
      "inputs": [
        {
          "indexed": false,
          "internalType": "uint256",
          "name": "drugId",
          "type": "uint256"
        }
      ],
      "name": "DrugMarkedCounterfeit",
      "type": "event"
    },
    {
      "anonymous": false,
      "inputs": [
        {
          "indexed": false,
          "internalType": "uint256",
          "name": "drugId",
          "type": "uint256"
        },
        {
          "indexed": false,
          "internalType": "address",
          "name": "from",
          "type": "address"
        },
        {
          "indexed": false,
          "internalType": "address",
          "name": "to",
          "type": "address"
        }
      ],
      "name": "DrugTransferred",
      "type": "event"
    },
    {
      "inputs": [
        {
          "internalType": "string",
          "name": "_name",
          "type": "string"
        },
        {
          "internalType": "string",
          "name": "_lotNumber",
          "type": "string"
        }
      ],
      "name": "addDrug",
      "outputs": [],
      "stateMutability": "nonpayable",
      "type": "function"
    },
    {
      "inputs": [],
      "name": "drugCount",
      "outputs": [
        {
          "internalType": "uint256",
          "name": "",
          "type": "uint256"
        }
      ],
      "stateMutability": "view",
      "type": "function"
    },
    {
      "inputs": [
        {
          "internalType": "uint256",
          "name": "",
          "type": "uint256"
        }
      ],
      "name": "drugs",
      "outputs": [
        {
          "internalType": "uint256",
          "name": "drugId",
          "type": "uint256"
        },
        {
          "internalType": "string",
          "name": "name",
          "type": "string"
        },
        {
          "internalType": "string",
          "name": "lotNumber",
          "type": "string"
        },
        {
          "internalType": "address",
          "name": "manufacturer",
          "type": "address"
        },
        {
          "internalType": "address",
          "name": "currentHolder",
          "type": "address"
        },
        {
          "internalType": "uint256",
          "name": "timestamp",
          "type": "uint256"
        },
        {
          "internalType": "bool",
          "name": "isCounterfeit",
          "type": "bool"
        }
      ],
      "stateMutability": "view",
      "type": "function"
    },
    {
      "inputs": [
        {
          "internalType": "uint256",
          "name": "_drugId",
          "type": "uint256"
        }
      ],
      "name": "getDrugInfo",
      "outputs": [
        {
          "internalType": "uint256",
          "name": "drugId",
          "type": "uint256"
        },
        {
          "internalType": "string",
          "name": "name",
          "type": "string"
        },
        {
          "internalType": "string",
          "name": "lotNumber",
          "type": "string"
        },
        {
          "internalType": "address",
          "name": "manufacturer",
          "type": "address"
        },
        {
          "internalType": "address",
          "name": "currentHolder",
          "type": "address"
        },
        {
          "internalType": "uint256",
          "name": "timestamp",
          "type": "uint256"
        },
        {
          "internalType": "bool",
          "name": "isCounterfeit",
          "type": "bool"
        }
      ],
      "stateMutability": "view",
      "type": "function"
    },
    {
      "inputs": [
        {
          "internalType": "uint256",
          "name": "_drugId",
          "type": "uint256"
        }
      ],
      "name": "markAsCounterfeit",
      "outputs": [],
      "stateMutability": "nonpayable",
      "type": "function"
    },
    {
      "inputs": [],
      "name": "participantRegistry",
      "outputs": [
        {
          "internalType": "contract ParticipantRegistry",
          "name": "",
          "type": "address"
        }
      ],
      "stateMutability": "view",
      "type": "function"
    },
    {
      "inputs": [
        {
          "internalType": "uint256",
          "name": "_drugId",
          "type": "uint256"
        },
        {
          "internalType": "address",
          "name": "_newHolder",
          "type": "address"
        }
      ],
      "name": "transferDrug",
      "outputs": [],
      "stateMutability": "nonpayable",
      "type": "function"
    }
  ],
  "bytecode": "0x608060405234801561001057600080fd5b50604051611afc380380611afc833981810160405281019061003291906100dc565b80600260006101000a81548173ffffffffffffffffffffffffffffffffffffffff021916908373ffffffffffffffffffffffffffffffffffffffff16021790555050610109565b600080fd5b600073ffffffffffffffffffffffffffffffffffffffff82169050919050565b60006100a98261007e565b9050919050565b6100b98161009e565b81146100c457600080fd5b50565b6000815190506100d6816100b0565b92915050565b6000602082840312156100f2576100f1610079565b5b6000610100848285016100c7565b91505092915050565b6119e4806101186000396000f3fe608060405234801561001057600080fd5b506004361061007d5760003560e01c80637a31b7771161005b5780637a31b777146100f25780639b1e2a121461010e5780639e9ca5911461012a578063fca5e61e146101485761007d565b80630b210a7214610082578063207b71d9146100b85780637577ca37146100d4575b600080fd5b61009c60048036038101906100979190610e20565b61017e565b6040516100af9796959493929190610f48565b60405180910390f35b6100d260048036038101906100cd9190610ff1565b61033f565b005b6100dc6108dd565b6040516100e99190611031565b60405180910390f35b61010c60048036038101906101079190611181565b6108e3565b005b61012860048036038101906101239190610e20565b610ba9565b005b610132610c11565b60405161013f9190611258565b60405180910390f35b610162600480360381019061015d9190610e20565b610c37565b6040516101759796959493929190610f48565b60405180910390f35b600060608060008060008060008060008a81526020019081526020016000209050806000015481600101826002018360030160009054906101000a900473ffffffffffffffffffffffffffffffffffffffff168460040160009054906101000a900473ffffffffffffffffffffffffffffffffffffffff1685600501548660060160009054906101000a900460ff16858054610219906112a2565b80601f0160208091040260200160405190810160405280929190818152602001828054610245906112a2565b80156102925780601f1061026757610100808354040283529160200191610292565b820191906000526020600020905b81548152906001019060200180831161027557829003601f168201915b505050505095508480546102a5906112a2565b80601f01602080910402602001604051908101604052809291908181526020018280546102d1906112a2565b801561031e5780601f106102f35761010080835404028352916020019161031e565b820191906000526020600020905b81548152906001019060200180831161030157829003601f168201915b50505050509450975097509750975097509750975050919395979092949650565b813373ffffffffffffffffffffffffffffffffffffffff1660008083815260200190815260200160002060040160009054906101000a900473ffffffffffffffffffffffffffffffffffffffff1673ffffffffffffffffffffffffffffffffffffffff16146103e3576040517f08c379a00000000000000000000000000000000000000000000000000000000081526004016103da90611345565b60405180910390fd5b7fc24f51deecbfd85250844dc29d58c5376a8f2a65025e6d4436c54ec4007b54e18360008086815260200190815260200160002060040160009054906101000a900473ffffffffffffffffffffffffffffffffffffffff16604051610449929190611365565b60405180910390a1600260009054906101000a900473ffffffffffffffffffffffffffffffffffffffff1673ffffffffffffffffffffffffffffffffffffffff1663929066f5836040518263ffffffff1660e01b81526004016104ac919061138e565b602060405180830381865afa1580156104c9573d6000803e3d6000fd5b505050506040513d601f19601f820116820180604052508101906104ed91906113d5565b61052c576040517f08c379a000000000000000000000000000000000000000000000000000000000815260040161052390611474565b60405180910390fd5b600060028111156105405761053f611494565b5b600260009054906101000a900473ffffffffffffffffffffffffffffffffffffffff1673ffffffffffffffffffffffffffffffffffffffff1663fe71f3e4336040518263ffffffff1660e01b815260040161059b919061138e565b602060405180830381865afa1580156105b8573d6000803e3d6000fd5b505050506040513d601f19601f820116820180604052508101906105dc91906114e8565b60028111156105ee576105ed611494565b5b14806106b957506001600281111561060957610608611494565b5b600260009054906101000a900473ffffffffffffffffffffffffffffffffffffffff1673ffffffffffffffffffffffffffffffffffffffff1663fe71f3e4336040518263ffffffff1660e01b8152600401610664919061138e565b602060405180830381865afa158015610681573d6000803e3d6000fd5b505050506040513d601f19601f820116820180604052508101906106a591906114e8565b60028111156106b7576106b6611494565b5b145b8061078257506002808111156106d2576106d1611494565b5b600260009054906101000a900473ffffffffffffffffffffffffffffffffffffffff1673ffffffffffffffffffffffffffffffffffffffff1663fe71f3e4336040518263ffffffff1660e01b815260040161072d919061138e565b602060405180830381865afa15801561074a573d6000803e3d6000fd5b505050506040513d601f19601f8201168201806040525081019061076e91906114e8565b60028111156107805761077f611494565b5b145b6107c1576040517f08c379a00000000000000000000000000000000000000000000000000000000081526004016107b890611587565b60405180910390fd5b8160008085815260200190815260200160002060040160006101000a81548173ffffffffffffffffffffffffffffffffffffffff021916908373ffffffffffffffffffffffffffffffffffffffff16021790555042600080858152602001908152602001600020600501819055507fc24f51deecbfd85250844dc29d58c5376a8f2a65025e6d4436c54ec4007b54e18360008086815260200190815260200160002060040160009054906101000a900473ffffffffffffffffffffffffffffffffffffffff16604051610895929190611365565b60405180910390a17f6dda5e3ecad7a4c94f91aa557b4624d5c689836632f15175473ab73058c889498333846040516108d0939291906115a7565b60405180910390a1505050565b60015481565b600060028111156108f7576108f6611494565b5b600260009054906101000a900473ffffffffffffffffffffffffffffffffffffffff1673ffffffffffffffffffffffffffffffffffffffff1663fe71f3e4336040518263ffffffff1660e01b8152600401610952919061138e565b602060405180830381865afa15801561096f573d6000803e3d6000fd5b505050506040513d601f19601f8201168201806040525081019061099391906114e8565b60028111156109a5576109a4611494565b5b146109e5576040517f08c379a00000000000000000000000000000000000000000000000000000000081526004016109dc90611650565b60405180910390fd5b600160008154809291906109f89061169f565b91905055506040518060e0016040528060015481526020018381526020018281526020013373ffffffffffffffffffffffffffffffffffffffff1681526020013373ffffffffffffffffffffffffffffffffffffffff168152602001428152602001600015158152506000806001548152602001908152602001600020600082015181600001556020820151816001019081610a949190611889565b506040820151816002019081610aaa9190611889565b5060608201518160030160006101000a81548173ffffffffffffffffffffffffffffffffffffffff021916908373ffffffffffffffffffffffffffffffffffffffff16021790555060808201518160040160006101000a81548173ffffffffffffffffffffffffffffffffffffffff021916908373ffffffffffffffffffffffffffffffffffffffff16021790555060a0820151816005015560c08201518160060160006101000a81548160ff0219169083151502179055509050507fa9e2ce00663dc467daab64a47e8c4e0ead28a50232e1b6d41f15d8f7e9a06b71600154838333604051610b9d949392919061195b565b60405180910390a15050565b600160008083815260200190815260200160002060060160006101000a81548160ff0219169083151502179055507f62385df2c9ae3bb7a527154cdf952f7b28013c0e0d180a8640de3b682873fe1281604051610c069190611031565b60405180910390a150565b600260009054906101000a900473ffffffffffffffffffffffffffffffffffffffff1681565b6000602052806000526040600020600091509050806000015490806001018054610c60906112a2565b80601f0160208091040260200160405190810160405280929190818152602001828054610c8c906112a2565b8015610cd95780601f10610cae57610100808354040283529160200191610cd9565b820191906000526020600020905b815481529060010190602001808311610cbc57829003601f168201915b505050505090806002018054610cee906112a2565b80601f0160208091040260200160405190810160405280929190818152602001828054610d1a906112a2565b8015610d675780601f10610d3c57610100808354040283529160200191610d67565b820191906000526020600020905b815481529060010190602001808311610d4a57829003601f168201915b5050505050908060030160009054906101000a900473ffffffffffffffffffffffffffffffffffffffff16908060040160009054906101000a900473ffffffffffffffffffffffffffffffffffffffff16908060050154908060060160009054906101000a900460ff16905087565b6000604051905090565b600080fd5b600080fd5b6000819050919050565b610dfd81610dea565b8114610e0857600080fd5b50565b600081359050610e1a81610df4565b92915050565b600060208284031215610e3657610e35610de0565b5b6000610e4484828501610e0b565b91505092915050565b610e5681610dea565b82525050565b600081519050919050565b600082825260208201905092915050565b60005b83811015610e96578082015181840152602081019050610e7b565b60008484015250505050565b6000601f19601f8301169050919050565b6000610ebe82610e5c565b610ec88185610e67565b9350610ed8818560208601610e78565b610ee181610ea2565b840191505092915050565b600073ffffffffffffffffffffffffffffffffffffffff82169050919050565b6000610f1782610eec565b9050919050565b610f2781610f0c565b82525050565b60008115159050919050565b610f4281610f2d565b82525050565b600060e082019050610f5d600083018a610e4d565b8181036020830152610f6f8189610eb3565b90508181036040830152610f838188610eb3565b9050610f926060830187610f1e565b610f9f6080830186610f1e565b610fac60a0830185610e4d565b610fb960c0830184610f39565b98975050505050505050565b610fce81610f0c565b8114610fd957600080fd5b50565b600081359050610feb81610fc5565b92915050565b6000806040838503121561100857611007610de0565b5b600061101685828601610e0b565b925050602061102785828601610fdc565b9150509250929050565b60006020820190506110466000830184610e4d565b92915050565b600080fd5b600080fd5b7f4e487b7100000000000000000000000000000000000000000000000000000000600052604160045260246000fd5b61108e82610ea2565b810181811067ffffffffffffffff821117156110ad576110ac611056565b5b80604052505050565b60006110c0610dd6565b90506110cc8282611085565b919050565b600067ffffffffffffffff8211156110ec576110eb611056565b5b6110f582610ea2565b9050602081019050919050565b82818337600083830152505050565b600061112461111f846110d1565b6110b6565b9050828152602081018484840111156111405761113f611051565b5b61114b848285611102565b509392505050565b600082601f8301126111685761116761104c565b5b8135611178848260208601611111565b91505092915050565b6000806040838503121561119857611197610de0565b5b600083013567ffffffffffffffff8111156111b6576111b5610de5565b5b6111c285828601611153565b925050602083013567ffffffffffffffff8111156111e3576111e2610de5565b5b6111ef85828601611153565b9150509250929050565b6000819050919050565b600061121e61121961121484610eec565b6111f9565b610eec565b9050919050565b600061123082611203565b9050919050565b600061124282611225565b9050919050565b61125281611237565b82525050565b600060208201905061126d6000830184611249565b92915050565b7f4e487b7100000000000000000000000000000000000000000000000000000000600052602260045260246000fd5b600060028204905060018216806112ba57607f821691505b6020821081036112cd576112cc611273565b5b50919050565b7f596f7520617265206e6f74207468652063757272656e7420686f6c646572206f60008201527f66207468697320647275672e0000000000000000000000000000000000000000602082015250565b600061132f602c83610e67565b915061133a826112d3565b604082019050919050565b6000602082019050818103600083015261135e81611322565b9050919050565b600060408201905061137a6000830185610e4d565b6113876020830184610f1e565b9392505050565b60006020820190506113a36000830184610f1e565b92915050565b6113b281610f2d565b81146113bd57600080fd5b50565b6000815190506113cf816113a9565b92915050565b6000602082840312156113eb576113ea610de0565b5b60006113f9848285016113c0565b91505092915050565b7f546865206e657720686f6c646572206d7573742062652061207265676973746560008201527f726564207061727469636970616e742e00000000000000000000000000000000602082015250565b600061145e603083610e67565b915061146982611402565b604082019050919050565b6000602082019050818103600083015261148d81611451565b9050919050565b7f4e487b7100000000000000000000000000000000000000000000000000000000600052602160045260246000fd5b600381106114d057600080fd5b50565b6000815190506114e2816114c3565b92915050565b6000602082840312156114fe576114fd610de0565b5b600061150c848285016114d3565b91505092915050565b7f4f6e6c792072656769737465726564207061727469636970616e74732063616e60008201527f207472616e736665722064727567732e00000000000000000000000000000000602082015250565b6000611571603083610e67565b915061157c82611515565b604082019050919050565b600060208201905081810360008301526115a081611564565b9050919050565b60006060820190506115bc6000830186610e4d565b6115c96020830185610f1e565b6115d66040830184610f1e565b949350505050565b7f4f6e6c79206d616e756661637475726572732063616e20706572666f726d207460008201527f68697320616374696f6e2e000000000000000000000000000000000000000000602082015250565b600061163a602b83610e67565b9150611645826115de565b604082019050919050565b600060208201905081810360008301526116698161162d565b9050919050565b7f4e487b7100000000000000000000000000000000000000000000000000000000600052601160045260246000fd5b60006116aa82610dea565b91507fffffffffffffffffffffffffffffffffffffffffffffffffffffffffffffffff82036116dc576116db611670565b5b600182019050919050565b60008190508160005260206000209050919050565b60006020601f8301049050919050565b600082821b905092915050565b6000600883026117497fffffffffffffffffffffffffffffffffffffffffffffffffffffffffffffffff8261170c565b611753868361170c565b95508019841693508086168417925050509392505050565b600061178661178161177c84610dea565b6111f9565b610dea565b9050919050565b6000819050919050565b6117a08361176b565b6117b46117ac8261178d565b848454611719565b825550505050565b600090565b6117c96117bc565b6117d4818484611797565b505050565b5b818110156117f8576117ed6000826117c1565b6001810190506117da565b5050565b601f82111561183d5761180e816116e7565b611817846116fc565b81016020851015611826578190505b61183a611832856116fc565b8301826117d9565b50505b505050565b600082821c905092915050565b600061186060001984600802611842565b1980831691505092915050565b6000611879838361184f565b9150826002028217905092915050565b61189282610e5c565b67ffffffffffffffff8111156118ab576118aa611056565b5b6118b582546112a2565b6118c08282856117fc565b600060209050601f8311600181146118f357600084156118e1578287015190505b6118eb858261186d565b865550611953565b601f198416611901866116e7565b60005b8281101561192957848901518255600182019150602085019450602081019050611904565b868310156119465784890151611942601f89168261184f565b8355505b6001600288020188555050505b505050505050565b60006080820190506119706000830187610e4d565b81810360208301526119828186610eb3565b905081810360408301526119968185610eb3565b90506119a56060830184610f1e565b9594505050505056fea2646970667358221220adfa68f8cce0faa9e7eb7479cb917a6650e0413c7eac2facc4a52caf2425460064736f6c634300081c0033",
  "linkReferences": {},
  "deployedLinkReferences": {}
}