{
  "_format": "hh-sol-artifact-1",
  "contractName": "DrugTracking",
  "sourceName": "contracts/DrugTracking.sol",
  "abi": [
    {
      "inputs": [
        {
          "internalType": "address",
          "name": "_participantRegistryAddress",
          "type": "address"
        }
      ],
      "stateMutability": "nonpayable",
      "type": "constructor"
    },
    {
      "anonymous": false,
      "inputs": [
        {
          "indexed": false,
          "internalType": "uint256",
          "name": "drugId",
          "type": "uint256"
        },
        {
          "indexed": false,
          "internalType": "string",
          "name": "name",
          "type": "string"
        },
        {
          "indexed": false,
          "internalType": "string",
          "name": "lotNumber",
          "type": "string"
        },
        {
          "indexed": false,
          "internalType": "address",
          "name": "manufacturer",
          "type": "address"
        }
      ],
      "name": "DrugAdded",
      "type": "event"
    },
    {
      "anonymous": false,
      "inputs": [
        {
          "indexed": false,
          "internalType": "uint256",
          "name": "drugId",
          "type": "uint256"
        }
      ],
      "name": "DrugMarkedCounterfeit",
      "type": "event"
    },
    {
      "anonymous": false,
      "inputs": [
        {
          "indexed": false,
          "internalType": "uint256",
          "name": "drugId",
          "type": "uint256"
        },
        {
          "indexed": false,
          "internalType": "address",
          "name": "from",
          "type": "address"
        },
        {
          "indexed": false,
          "internalType": "address",
          "name": "to",
          "type": "address"
        }
      ],
      "name": "DrugTransferred",
      "type": "event"
    },
    {
      "inputs": [
        {
          "internalType": "string",
          "name": "_name",
          "type": "string"
        },
        {
          "internalType": "string",
          "name": "_lotNumber",
          "type": "string"
        }
      ],
      "name": "addDrug",
      "outputs": [],
      "stateMutability": "nonpayable",
      "type": "function"
    },
    {
      "inputs": [],
      "name": "drugCount",
      "outputs": [
        {
          "internalType": "uint256",
          "name": "",
          "type": "uint256"
        }
      ],
      "stateMutability": "view",
      "type": "function"
    },
    {
      "inputs": [
        {
          "internalType": "uint256",
          "name": "",
          "type": "uint256"
        }
      ],
      "name": "drugs",
      "outputs": [
        {
          "internalType": "uint256",
          "name": "drugId",
          "type": "uint256"
        },
        {
          "internalType": "string",
          "name": "name",
          "type": "string"
        },
        {
          "internalType": "string",
          "name": "lotNumber",
          "type": "string"
        },
        {
          "internalType": "address",
          "name": "manufacturer",
          "type": "address"
        },
        {
          "internalType": "address",
          "name": "currentHolder",
          "type": "address"
        },
        {
          "internalType": "uint256",
          "name": "timestamp",
          "type": "uint256"
        },
        {
          "internalType": "bool",
          "name": "isCounterfeit",
          "type": "bool"
        }
      ],
      "stateMutability": "view",
      "type": "function"
    },
    {
      "inputs": [
        {
          "internalType": "uint256",
          "name": "_drugId",
          "type": "uint256"
        }
      ],
      "name": "getDrugInfo",
      "outputs": [
        {
          "internalType": "uint256",
          "name": "drugId",
          "type": "uint256"
        },
        {
          "internalType": "string",
          "name": "name",
          "type": "string"
        },
        {
          "internalType": "string",
          "name": "lotNumber",
          "type": "string"
        },
        {
          "internalType": "address",
          "name": "manufacturer",
          "type": "address"
        },
        {
          "internalType": "address",
          "name": "currentHolder",
          "type": "address"
        },
        {
          "internalType": "uint256",
          "name": "timestamp",
          "type": "uint256"
        },
        {
          "internalType": "bool",
          "name": "isCounterfeit",
          "type": "bool"
        }
      ],
      "stateMutability": "view",
      "type": "function"
    },
    {
      "inputs": [
        {
          "internalType": "uint256",
          "name": "_drugId",
          "type": "uint256"
        }
      ],
      "name": "markAsCounterfeit",
      "outputs": [],
      "stateMutability": "nonpayable",
      "type": "function"
    },
    {
      "inputs": [],
      "name": "participantRegistry",
      "outputs": [
        {
          "internalType": "contract ParticipantRegistry",
          "name": "",
          "type": "address"
        }
      ],
      "stateMutability": "view",
      "type": "function"
    },
    {
      "inputs": [
        {
          "internalType": "uint256",
          "name": "_drugId",
          "type": "uint256"
        },
        {
          "internalType": "address",
          "name": "_newHolder",
          "type": "address"
        }
      ],
      "name": "transferDrug",
      "outputs": [],
      "stateMutability": "nonpayable",
      "type": "function"
    }
  ],
  "bytecode": "0x608060405234801561001057600080fd5b50604051611896380380611896833981810160405281019061003291906100dc565b80600260006101000a81548173ffffffffffffffffffffffffffffffffffffffff021916908373ffffffffffffffffffffffffffffffffffffffff16021790555050610109565b600080fd5b600073ffffffffffffffffffffffffffffffffffffffff82169050919050565b60006100a98261007e565b9050919050565b6100b98161009e565b81146100c457600080fd5b50565b6000815190506100d6816100b0565b92915050565b6000602082840312156100f2576100f1610079565b5b6000610100848285016100c7565b91505092915050565b61177e806101186000396000f3fe608060405234801561001057600080fd5b506004361061007d5760003560e01c80637a31b7771161005b5780637a31b777146100f25780639b1e2a121461010e5780639e9ca5911461012a578063fca5e61e146101485761007d565b80630b210a7214610082578063207b71d9146100b85780637577ca37146100d4575b600080fd5b61009c60048036038101906100979190610be3565b61017e565b6040516100af9796959493929190610d0b565b60405180910390f35b6100d260048036038101906100cd9190610db4565b61033f565b005b6100dc6106a0565b6040516100e99190610df4565b60405180910390f35b61010c60048036038101906101079190610f44565b6106a6565b005b61012860048036038101906101239190610be3565b61096c565b005b6101326109d4565b60405161013f919061101b565b60405180910390f35b610162600480360381019061015d9190610be3565b6109fa565b6040516101759796959493929190610d0b565b60405180910390f35b600060608060008060008060008060008a81526020019081526020016000209050806000015481600101826002018360030160009054906101000a900473ffffffffffffffffffffffffffffffffffffffff168460040160009054906101000a900473ffffffffffffffffffffffffffffffffffffffff1685600501548660060160009054906101000a900460ff1685805461021990611065565b80601f016020809104026020016040519081016040528092919081815260200182805461024590611065565b80156102925780601f1061026757610100808354040283529160200191610292565b820191906000526020600020905b81548152906001019060200180831161027557829003601f168201915b505050505095508480546102a590611065565b80601f01602080910402602001604051908101604052809291908181526020018280546102d190611065565b801561031e5780601f106102f35761010080835404028352916020019161031e565b820191906000526020600020905b81548152906001019060200180831161030157829003601f168201915b50505050509450975097509750975097509750975050919395979092949650565b6000600260009054906101000a900473ffffffffffffffffffffffffffffffffffffffff1673ffffffffffffffffffffffffffffffffffffffff1663fe71f3e4336040518263ffffffff1660e01b815260040161039c9190611096565b602060405180830381865afa1580156103b9573d6000803e3d6000fd5b505050506040513d601f19601f820116820180604052508101906103dd91906110d6565b9050600160028111156103f3576103f2611103565b5b81600281111561040657610405611103565b5b148061043557506002808111156104205761041f611103565b5b81600281111561043357610432611103565b5b145b610474576040517f08c379a000000000000000000000000000000000000000000000000000000000815260040161046b906111a4565b60405180910390fd5b3373ffffffffffffffffffffffffffffffffffffffff1660008085815260200190815260200160002060040160009054906101000a900473ffffffffffffffffffffffffffffffffffffffff1673ffffffffffffffffffffffffffffffffffffffff1614610517576040517f08c379a000000000000000000000000000000000000000000000000000000000815260040161050e90611236565b60405180910390fd5b600260009054906101000a900473ffffffffffffffffffffffffffffffffffffffff1673ffffffffffffffffffffffffffffffffffffffff1663929066f5836040518263ffffffff1660e01b81526004016105729190611096565b602060405180830381865afa15801561058f573d6000803e3d6000fd5b505050506040513d601f19601f820116820180604052508101906105b39190611282565b6105f2576040517f08c379a00000000000000000000000000000000000000000000000000000000081526004016105e990611321565b60405180910390fd5b8160008085815260200190815260200160002060040160006101000a81548173ffffffffffffffffffffffffffffffffffffffff021916908373ffffffffffffffffffffffffffffffffffffffff16021790555042600080858152602001908152602001600020600501819055507f6dda5e3ecad7a4c94f91aa557b4624d5c689836632f15175473ab73058c8894983338460405161069393929190611341565b60405180910390a1505050565b60015481565b600060028111156106ba576106b9611103565b5b600260009054906101000a900473ffffffffffffffffffffffffffffffffffffffff1673ffffffffffffffffffffffffffffffffffffffff1663fe71f3e4336040518263ffffffff1660e01b81526004016107159190611096565b602060405180830381865afa158015610732573d6000803e3d6000fd5b505050506040513d601f19601f8201168201806040525081019061075691906110d6565b600281111561076857610767611103565b5b146107a8576040517f08c379a000000000000000000000000000000000000000000000000000000000815260040161079f906113ea565b60405180910390fd5b600160008154809291906107bb90611439565b91905055506040518060e0016040528060015481526020018381526020018281526020013373ffffffffffffffffffffffffffffffffffffffff1681526020013373ffffffffffffffffffffffffffffffffffffffff1681526020014281526020016000151581525060008060015481526020019081526020016000206000820151816000015560208201518160010190816108579190611623565b50604082015181600201908161086d9190611623565b5060608201518160030160006101000a81548173ffffffffffffffffffffffffffffffffffffffff021916908373ffffffffffffffffffffffffffffffffffffffff16021790555060808201518160040160006101000a81548173ffffffffffffffffffffffffffffffffffffffff021916908373ffffffffffffffffffffffffffffffffffffffff16021790555060a0820151816005015560c08201518160060160006101000a81548160ff0219169083151502179055509050507fa9e2ce00663dc467daab64a47e8c4e0ead28a50232e1b6d41f15d8f7e9a06b7160015483833360405161096094939291906116f5565b60405180910390a15050565b600160008083815260200190815260200160002060060160006101000a81548160ff0219169083151502179055507f62385df2c9ae3bb7a527154cdf952f7b28013c0e0d180a8640de3b682873fe12816040516109c99190610df4565b60405180910390a150565b600260009054906101000a900473ffffffffffffffffffffffffffffffffffffffff1681565b6000602052806000526040600020600091509050806000015490806001018054610a2390611065565b80601f0160208091040260200160405190810160405280929190818152602001828054610a4f90611065565b8015610a9c5780601f10610a7157610100808354040283529160200191610a9c565b820191906000526020600020905b815481529060010190602001808311610a7f57829003601f168201915b505050505090806002018054610ab190611065565b80601f0160208091040260200160405190810160405280929190818152602001828054610add90611065565b8015610b2a5780601f10610aff57610100808354040283529160200191610b2a565b820191906000526020600020905b815481529060010190602001808311610b0d57829003601f168201915b5050505050908060030160009054906101000a900473ffffffffffffffffffffffffffffffffffffffff16908060040160009054906101000a900473ffffffffffffffffffffffffffffffffffffffff16908060050154908060060160009054906101000a900460ff16905087565b6000604051905090565b600080fd5b600080fd5b6000819050919050565b610bc081610bad565b8114610bcb57600080fd5b50565b600081359050610bdd81610bb7565b92915050565b600060208284031215610bf957610bf8610ba3565b5b6000610c0784828501610bce565b91505092915050565b610c1981610bad565b82525050565b600081519050919050565b600082825260208201905092915050565b60005b83811015610c59578082015181840152602081019050610c3e565b60008484015250505050565b6000601f19601f8301169050919050565b6000610c8182610c1f565b610c8b8185610c2a565b9350610c9b818560208601610c3b565b610ca481610c65565b840191505092915050565b600073ffffffffffffffffffffffffffffffffffffffff82169050919050565b6000610cda82610caf565b9050919050565b610cea81610ccf565b82525050565b60008115159050919050565b610d0581610cf0565b82525050565b600060e082019050610d20600083018a610c10565b8181036020830152610d328189610c76565b90508181036040830152610d468188610c76565b9050610d556060830187610ce1565b610d626080830186610ce1565b610d6f60a0830185610c10565b610d7c60c0830184610cfc565b98975050505050505050565b610d9181610ccf565b8114610d9c57600080fd5b50565b600081359050610dae81610d88565b92915050565b60008060408385031215610dcb57610dca610ba3565b5b6000610dd985828601610bce565b9250506020610dea85828601610d9f565b9150509250929050565b6000602082019050610e096000830184610c10565b92915050565b600080fd5b600080fd5b7f4e487b7100000000000000000000000000000000000000000000000000000000600052604160045260246000fd5b610e5182610c65565b810181811067ffffffffffffffff82111715610e7057610e6f610e19565b5b80604052505050565b6000610e83610b99565b9050610e8f8282610e48565b919050565b600067ffffffffffffffff821115610eaf57610eae610e19565b5b610eb882610c65565b9050602081019050919050565b82818337600083830152505050565b6000610ee7610ee284610e94565b610e79565b905082815260208101848484011115610f0357610f02610e14565b5b610f0e848285610ec5565b509392505050565b600082601f830112610f2b57610f2a610e0f565b5b8135610f3b848260208601610ed4565b91505092915050565b60008060408385031215610f5b57610f5a610ba3565b5b600083013567ffffffffffffffff811115610f7957610f78610ba8565b5b610f8585828601610f16565b925050602083013567ffffffffffffffff811115610fa657610fa5610ba8565b5b610fb285828601610f16565b9150509250929050565b6000819050919050565b6000610fe1610fdc610fd784610caf565b610fbc565b610caf565b9050919050565b6000610ff382610fc6565b9050919050565b600061100582610fe8565b9050919050565b61101581610ffa565b82525050565b6000602082019050611030600083018461100c565b92915050565b7f4e487b7100000000000000000000000000000000000000000000000000000000600052602260045260246000fd5b6000600282049050600182168061107d57607f821691505b6020821081036110905761108f611036565b5b50919050565b60006020820190506110ab6000830184610ce1565b92915050565b600381106110be57600080fd5b50565b6000815190506110d0816110b1565b92915050565b6000602082840312156110ec576110eb610ba3565b5b60006110fa848285016110c1565b91505092915050565b7f4e487b7100000000000000000000000000000000000000000000000000000000600052602160045260246000fd5b7f4f6e6c79206469737472696275746f7273206f7220706861726d61636965732060008201527f63616e20706572666f726d207468697320616374696f6e2e0000000000000000602082015250565b600061118e603883610c2a565b915061119982611132565b604082019050919050565b600060208201905081810360008301526111bd81611181565b9050919050565b7f596f7520617265206e6f74207468652063757272656e7420686f6c646572206f60008201527f66207468697320647275672e0000000000000000000000000000000000000000602082015250565b6000611220602c83610c2a565b915061122b826111c4565b604082019050919050565b6000602082019050818103600083015261124f81611213565b9050919050565b61125f81610cf0565b811461126a57600080fd5b50565b60008151905061127c81611256565b92915050565b60006020828403121561129857611297610ba3565b5b60006112a68482850161126d565b91505092915050565b7f546865206e657720686f6c646572206d7573742062652061207265676973746560008201527f726564207061727469636970616e742e00000000000000000000000000000000602082015250565b600061130b603083610c2a565b9150611316826112af565b604082019050919050565b6000602082019050818103600083015261133a816112fe565b9050919050565b60006060820190506113566000830186610c10565b6113636020830185610ce1565b6113706040830184610ce1565b949350505050565b7f4f6e6c79206d616e756661637475726572732063616e20706572666f726d207460008201527f68697320616374696f6e2e000000000000000000000000000000000000000000602082015250565b60006113d4602b83610c2a565b91506113df82611378565b604082019050919050565b60006020820190508181036000830152611403816113c7565b9050919050565b7f4e487b7100000000000000000000000000000000000000000000000000000000600052601160045260246000fd5b600061144482610bad565b91507fffffffffffffffffffffffffffffffffffffffffffffffffffffffffffffffff82036114765761147561140a565b5b600182019050919050565b60008190508160005260206000209050919050565b60006020601f8301049050919050565b600082821b905092915050565b6000600883026114e37fffffffffffffffffffffffffffffffffffffffffffffffffffffffffffffffff826114a6565b6114ed86836114a6565b95508019841693508086168417925050509392505050565b600061152061151b61151684610bad565b610fbc565b610bad565b9050919050565b6000819050919050565b61153a83611505565b61154e61154682611527565b8484546114b3565b825550505050565b600090565b611563611556565b61156e818484611531565b505050565b5b818110156115925761158760008261155b565b600181019050611574565b5050565b601f8211156115d7576115a881611481565b6115b184611496565b810160208510156115c0578190505b6115d46115cc85611496565b830182611573565b50505b505050565b600082821c905092915050565b60006115fa600019846008026115dc565b1980831691505092915050565b600061161383836115e9565b9150826002028217905092915050565b61162c82610c1f565b67ffffffffffffffff81111561164557611644610e19565b5b61164f8254611065565b61165a828285611596565b600060209050601f83116001811461168d576000841561167b578287015190505b6116858582611607565b8655506116ed565b601f19841661169b86611481565b60005b828110156116c35784890151825560018201915060208501945060208101905061169e565b868310156116e057848901516116dc601f8916826115e9565b8355505b6001600288020188555050505b505050505050565b600060808201905061170a6000830187610c10565b818103602083015261171c8186610c76565b905081810360408301526117308185610c76565b905061173f6060830184610ce1565b9594505050505056fea264697066735822122020dc4dfcff95313a1d03e78b30fcc1843eea3ddb5d9f56fe65fdb13fb0dfac4f64736f6c634300081c0033",
  "linkReferences": {},
  "deployedLinkReferences": {}
}